                                                            ZZGSES       1249125159937519332002402625                                                      20251128               
                                                            GSE  S       0832750106625012888001601750                                                      20260101
9999900000NON-METRO                                         GSE  S01710001249125159937519332002402625AK013ALASKA                    ALEUTIANS EAST         2026010102210002024
9999900000NON-METRO                                         GSE  S04960001249125159937519332002402625AK016ALASKA                    ALEUTIANS WEST         2026010105090002024
1126000000ANCHORAGE, AK                                     GSE  S04600001249125159937519332002402625AK020ALASKA                    ANCHORAGE              2026010104600002025
9999900000NON-METRO                                         GSE  S01540001249125159937519332002402625AK050ALASKA                    BETHEL CENSUS A        2026010102080002015
9999900000NON-METRO                                         GSE  S03440001249125159937519332002402625AK060ALASKA                    BRISTOL BAY BOR        2026010103450002023
9999900000NON-METRO                                         GSE  S02290001249125159937519332002402625AK063ALASKA                    CHUGACH CENSUS         2026010103200002022
9999900000NON-METRO                                         GSE  S04490001249125159937519332002402625AK066ALASKA                    COPPER RIVER CE        2026010104490002025
9999900000NON-METRO                                         GSE  S03340001249125159937519332002402625AK068ALASKA                    DENALI BOROUGH         2026010103340002025
9999900000NON-METRO                                         GSE  S01940001249125159937519332002402625AK070ALASKA                    DILLINGHAM CENS        2026010102600002024
2182000000FAIRBANKS-COLLEGE, AK                             GSE  S03350001249125159937519332002402625AK090ALASKA                    FAIRBANKS NORTH        2026010103350002025
9999900000NON-METRO                                         GSE  S03340001249125159937519332002402625AK100ALASKA                    HAINES BOROUGH         2026010103340002025
9999900000NON-METRO                                         GSE  S03550001249125159937519332002402625AK105ALASKA                    HOONAH-ANGOON C        2026010104560002022
2794000000JUNEAU, AK                                        GSE  S05190001249125159937519332002402625AK110ALASKA                    JUNEAU CITY AND        2026010105190002025
9999900000NON-METRO                                         GSE  S03190001249125159937519332002402625AK122ALASKA                    KENAI PENINSULA        2026010103190002025
2854000000KETCHIKAN, AK                                     GSE  S04420001249125159937519332002402625AK130ALASKA                    KETCHIKAN GATEW        2026010104420002025
9999900000NON-METRO                                         GSE  S04550001249125159937519332002402625AK150ALASKA                    KODIAK ISLAND B        2026010104710002024
9999900000NON-METRO                                         GSE  S00860001249125159937519332002402625AK158ALASKA                    KUSILVAK CENSUS        2026010101610002013
9999900000NON-METRO                                         GSE  S01970001249125159937519332002402625AK164ALASKA                    LAKE AND PENINS        2026010102250002024
1126000000ANCHORAGE, AK                                     GSE  S04600001249125159937519332002402625AK170ALASKA                    MATANUSKA-SUSIT        2026010104600002025
9999900000NON-METRO                                         GSE  S04670001249125159937519332002402625AK180ALASKA                    NOME CENSUS ARE        2026010104670002025
9999900000NON-METRO                                         GSE  S03930001249125159937519332002402625AK185ALASKA                    NORTH SLOPE BOR        2026010103930002025
9999900000NON-METRO                                         GSE  S02080001249125159937519332002402625AK188ALASKA                    NORTHWEST ARCTI        2026010102280002024
9999900000NON-METRO                                         GSE  S03850001249125159937519332002402625AK195ALASKA                    PETERSBURG CENS        2026010103850002025
9999900000NON-METRO                                         GSE  S02830001249125159937519332002402625AK198ALASKA                    PRINCE OF WALES        2026010102970002024
9999900000NON-METRO                                         GSE  S04900001249125159937519332002402625AK220ALASKA                    SITKA CITY AND         2026010105100002022
9999900000NON-METRO                                         GSE  S04660001249125159937519332002402625AK230ALASKA                    SKAGWAY                2026010104660002025
9999900000NON-METRO                                         GSE  S04130001249125159937519332002402625AK240ALASKA                    SOUTHEAST FAIRB        2026010104130002025
9999900000NON-METRO                                         GSE  S03380001249125159937519332002402625AK275ALASKA                    WRANGELL CITY A        2026010103500002024
9999900000NON-METRO                                         GSE  S02190001249125159937519332002402625AK282ALASKA                    YAKUTAT CITY AN        2026010103660002013
9999900000NON-METRO                                         GSE  S01120001249125159937519332002402625AK290ALASKA                    YUKON-KOYUKUK C        2026010101170002015
3386000000MONTGOMERY, AL                                    GSE  S02200000832750106625012888001601750AL001ALABAMA                   AUTAUGA                2026010102200002025
1930000000DAPHNE-FAIRHOPE-FOLEY, AL                         GSE  S03200000832750106625012888001601750AL003ALABAMA                   BALDWIN                2026010103200002025
2164000000EUFAULA, AL-GA                                    GSE  S01470000832750106625012888001601750AL005ALABAMA                   BARBOUR                2026010101470002025
1382000000BIRMINGHAM, AL                                    GSE  S03170000832750106625012888001601750AL007ALABAMA                   BIBB                   2026010103170002025
1382000000BIRMINGHAM, AL                                    GSE  S03170000832750106625012888001601750AL009ALABAMA                   BLOUNT                 2026010103170002025
9999900000NON-METRO                                         GSE  S01070000832750106625012888001601750AL011ALABAMA                   BULLOCK                2026010101430002024
9999900000NON-METRO                                         GSE  S01340000832750106625012888001601750AL013ALABAMA                   BUTLER                 2026010101350002022
1150000000ANNISTON-OXFORD, AL                               GSE  S01340000832750106625012888001601750AL015ALABAMA                   CALHOUN                2026010101570002021
2930000000LAGRANGE, GA-AL                                   GSE  S02150000832750106625012888001601750AL017ALABAMA                   CHAMBERS               2026010102150002025
9999900000NON-METRO                                         GSE  S01500000832750106625012888001601750AL019ALABAMA                   CHEROKEE               2026010101500002025
1382000000BIRMINGHAM, AL                                    GSE  S03170000832750106625012888001601750AL021ALABAMA                   CHILTON                2026010103170002025
9999900000NON-METRO                                         GSE  S01500000832750106625012888001601750AL023ALABAMA                   CHOCTAW                2026010101500002025
9999900000NON-METRO                                         GSE  S01690000832750106625012888001601750AL025ALABAMA                   CLARKE                 2026010101750002024
9999900000NON-METRO                                         GSE  S01000000832750106625012888001601750AL027ALABAMA                   CLAY                   2026010101000002025
9999900000NON-METRO                                         GSE  S01930000832750106625012888001601750AL029ALABAMA                   CLEBURNE               2026010101930002025
2146000000ENTERPRISE, AL                                    GSE  S01900000832750106625012888001601750AL031ALABAMA                   COFFEE                 2026010101900002025
2252000000FLORENCE-MUSCLE SHOALS, AL                        GSE  S01900000832750106625012888001601750AL033ALABAMA                   COLBERT                2026010101900002025
9999900000NON-METRO                                         GSE  S01360000832750106625012888001601750AL035ALABAMA                   CONECUH                2026010101370002024
4518000000TALLADEGA-SYLACAUGA, AL                           GSE  S01310000832750106625012888001601750AL037ALABAMA                   COOSA                  2026010102680002024
9999900000NON-METRO                                         GSE  S01200000832750106625012888001601750AL039ALABAMA                   COVINGTON              2026010101200002025
9999900000NON-METRO                                         GSE  S01450000832750106625012888001601750AL041ALABAMA                   CRENSHAW               2026010101450002025
1898000000CULLMAN, AL                                       GSE  S01780000832750106625012888001601750AL043ALABAMA                   CULLMAN                2026010101780002025
3712000000OZARK, AL                                         GSE  S01300000832750106625012888001601750AL045ALABAMA                   DALE                   2026010101300002025
4282000000SELMA, AL                                         GSE  S00650000832750106625012888001601750AL047ALABAMA                   DALLAS                 2026010100970002010
2284000000FORT PAYNE, AL                                    GSE  S01030000832750106625012888001601750AL049ALABAMA                   DEKALB                 2026010101460002019
3386000000MONTGOMERY, AL                                    GSE  S02200000832750106625012888001601750AL051ALABAMA                   ELMORE                 2026010102200002025
9999900000NON-METRO                                         GSE  S01640000832750106625012888001601750AL053ALABAMA                   ESCAMBIA               2026010102070002022
2346000000GADSDEN, AL                                       GSE  S02580000832750106625012888001601750AL055ALABAMA                   ETOWAH                 2026010102580002025
9999900000NON-METRO                                         GSE  S01190000832750106625012888001601750AL057ALABAMA                   FAYETTE                2026010101190002025
4077000000RUSSELLVILLE, AL                                  GSE  S00980000832750106625012888001601750AL059ALABAMA                   FRANKLIN               2026010100980002025
2002000000DOTHAN, AL                                        GSE  S01920000832750106625012888001601750AL061ALABAMA                   GENEVA                 2026010101920002025
4622000000TUSCALOOSA, AL                                    GSE  S02310000832750106625012888001601750AL063ALABAMA                   GREENE                 2026010102880002015
4622000000TUSCALOOSA, AL                                    GSE  S02310000832750106625012888001601750AL065ALABAMA                   HALE                   2026010102880002015
2002000000DOTHAN, AL                                        GSE  S01920000832750106625012888001601750AL067ALABAMA                   HENRY                  2026010101920002025
2002000000DOTHAN, AL                                        GSE  S01920000832750106625012888001601750AL069ALABAMA                   HOUSTON                2026010101920002025
4246000000SCOTTSBORO, AL                                    GSE  S02240000832750106625012888001601750AL071ALABAMA                   JACKSON                2026010102240002025
1382000000BIRMINGHAM, AL                                    GSE  S03170000832750106625012888001601750AL073ALABAMA                   JEFFERSON              2026010103170002025
9999900000NON-METRO                                         GSE  S01510000832750106625012888001601750AL075ALABAMA                   LAMAR                  2026010103520002022
2252000000FLORENCE-MUSCLE SHOALS, AL                        GSE  S01900000832750106625012888001601750AL077ALABAMA                   LAUDERDALE             2026010101900002025
1946000000DECATUR, AL                                       GSE  S02080000832750106625012888001601750AL079ALABAMA                   LAWRENCE               2026010102080002025
1222000000AUBURN-OPELIKA, AL                                GSE  S03710000832750106625012888001601750AL081ALABAMA                   LEE                    2026010103710002025
2662000000HUNTSVILLE, AL                                    GSE  S02950000832750106625012888001601750AL083ALABAMA                   LIMESTONE              2026010102950002025
3386000000MONTGOMERY, AL                                    GSE  S02200000832750106625012888001601750AL085ALABAMA                   LOWNDES                2026010102200002025
1222000000AUBURN-OPELIKA, AL                                GSE  S03710000832750106625012888001601750AL087ALABAMA                   MACON                  2026010103710002025
2662000000HUNTSVILLE, AL                                    GSE  S02950000832750106625012888001601750AL089ALABAMA                   MADISON                2026010102950002025
9999900000NON-METRO                                         GSE  S01390000832750106625012888001601750AL091ALABAMA                   MARENGO                2026010101390002025
9999900000NON-METRO                                         GSE  S01400000832750106625012888001601750AL093ALABAMA                   MARION                 2026010101980002024
1070000000ALBERTVILLE, AL                                   GSE  S01900000832750106625012888001601750AL095ALABAMA                   MARSHALL               2026010101900002025
3366000000MOBILE, AL                                        GSE  S01450000832750106625012888001601750AL097ALABAMA                   MOBILE                 2026010101890002024
9999900000NON-METRO                                         GSE  S00910000832750106625012888001601750AL099ALABAMA                   MONROE                 2026010101070002010
3386000000MONTGOMERY, AL                                    GSE  S02200000832750106625012888001601750AL101ALABAMA                   MONTGOMERY             2026010102200002025
1946000000DECATUR, AL                                       GSE  S02080000832750106625012888001601750AL103ALABAMA                   MORGAN                 2026010102080002025
9999900000NON-METRO                                         GSE  S01180000832750106625012888001601750AL105ALABAMA                   PERRY                  2026010101230002023
4622000000TUSCALOOSA, AL                                    GSE  S02310000832750106625012888001601750AL107ALABAMA                   PICKENS                2026010102880002015
4598000000TROY, AL                                          GSE  S01440000832750106625012888001601750AL109ALABAMA                   PIKE                   2026010101500002024
9999900000NON-METRO                                         GSE  S02460000832750106625012888001601750AL111ALABAMA                   RANDOLPH               2026010102750002023
1798000000COLUMBUS, GA-AL                                   GSE  S03250000832750106625012888001601750AL113ALABAMA                   RUSSELL                2026010103250002025
1382000000BIRMINGHAM, AL                                    GSE  S03170000832750106625012888001601750AL115ALABAMA                   ST. CLAIR              2026010103170002025
1382000000BIRMINGHAM, AL                                    GSE  S03170000832750106625012888001601750AL117ALABAMA                   SHELBY                 2026010103170002025
9999900000NON-METRO                                         GSE  S02710000832750106625012888001601750AL119ALABAMA                   SUMTER                 2026010102710002025
4518000000TALLADEGA-SYLACAUGA, AL                           GSE  S01310000832750106625012888001601750AL121ALABAMA                   TALLADEGA              2026010101580002009
1076000000ALEXANDER CITY, AL                                GSE  S02740000832750106625012888001601750AL123ALABAMA                   TALLAPOOSA             2026010102740002025
4622000000TUSCALOOSA, AL                                    GSE  S02310000832750106625012888001601750AL125ALABAMA                   TUSCALOOSA             2026010102880002015
1382000000BIRMINGHAM, AL                                    GSE  S03170000832750106625012888001601750AL127ALABAMA                   WALKER                 2026010103170002025
9999900000NON-METRO                                         GSE  S02050000832750106625012888001601750AL129ALABAMA                   WASHINGTON             2026010102050002025
9999900000NON-METRO                                         GSE  S01130000832750106625012888001601750AL131ALABAMA                   WILCOX                 2026010101200002023
9999900000NON-METRO                                         GSE  S01350000832750106625012888001601750AL133ALABAMA                   WINSTON                2026010101350002025
9999900000NON-METRO                                         GSE  S00930000832750106625012888001601750AR001ARKANSAS                  ARKANSAS               2026010100970002021
9999900000NON-METRO                                         GSE  S00750000832750106625012888001601750AR003ARKANSAS                  ASHLEY                 2026010100790002013
3426000000MOUNTAIN HOME, AR                                 GSE  S01900000832750106625012888001601750AR005ARKANSAS                  BAXTER                 2026010101900002025
2222000000FAYETTEVILLE-SPRINGDALE-ROGERS, AR                GSE  S03650000832750106625012888001601750AR007ARKANSAS                  BENTON                 2026010103650002025
2546000000HARRISON, AR                                      GSE  S01790000832750106625012888001601750AR009ARKANSAS                  BOONE                  2026010101790002025
9999900000NON-METRO                                         GSE  S00830000832750106625012888001601750AR011ARKANSAS                  BRADLEY                2026010100830002025
1578000000CAMDEN, AR                                        GSE  S00850000832750106625012888001601750AR013ARKANSAS                  CALHOUN                2026010101730002009
9999900000NON-METRO                                         GSE  S02210000832750106625012888001601750AR015ARKANSAS                  CARROLL                2026010102210002025
9999900000NON-METRO                                         GSE  S00950000832750106625012888001601750AR017ARKANSAS                  CHICOT                 2026010101190002008
1166000000ARKADELPHIA, AR                                   GSE  S02150000832750106625012888001601750AR019ARKANSAS                  CLARK                  2026010102190002023
9999900000NON-METRO                                         GSE  S00950000832750106625012888001601750AR021ARKANSAS                  CLAY                   2026010101190002024
9999900000NON-METRO                                         GSE  S01950000832750106625012888001601750AR023ARKANSAS                  CLEBURNE               2026010101950002025
3822000000PINE BLUFF, AR                                    GSE  S01630000832750106625012888001601750AR025ARKANSAS                  CLEVELAND              2026010101630002025
3162000000MAGNOLIA, AR                                      GSE  S01220000832750106625012888001601750AR027ARKANSAS                  COLUMBIA               2026010101490002023
9999900000NON-METRO                                         GSE  S01300000832750106625012888001601750AR029ARKANSAS                  CONWAY                 2026010101540002022
2786000000JONESBORO, AR                                     GSE  S02000000832750106625012888001601750AR031ARKANSAS                  CRAIGHEAD              2026010102000002025
2290000000FORT SMITH, AR-OK                                 GSE  S01790000832750106625012888001601750AR033ARKANSAS                  CRAWFORD               2026010101790002025
3282000000MEMPHIS, TN-MS-AR                                 GSE  S03390000832750106625012888001601750AR035ARKANSAS                  CRITTENDEN             2026010103400002024
9999900000NON-METRO                                         GSE  S01400000832750106625012888001601750AR037ARKANSAS                  CROSS                  2026010101400002024
9999900000NON-METRO                                         GSE  S00680000832750106625012888001601750AR039ARKANSAS                  DALLAS                 2026010100830002008
9999900000NON-METRO                                         GSE  S00830000832750106625012888001601750AR041ARKANSAS                  DESHA                  2026010100830002025
9999900000NON-METRO                                         GSE  S01400000832750106625012888001601750AR043ARKANSAS                  DREW                   2026010101500002024
3078000000LITTLE ROCK-NORTH LITTLE ROCK-CONWAY, AR          GSE  S02320000832750106625012888001601750AR045ARKANSAS                  FAULKNER               2026010102320002025
9999900000NON-METRO                                         GSE  S01210000832750106625012888001601750AR047ARKANSAS                  FRANKLIN               2026010101750002020
9999900000NON-METRO                                         GSE  S00950000832750106625012888001601750AR049ARKANSAS                  FULTON                 2026010101390002024
2630000000HOT SPRINGS, AR                                   GSE  S02100000832750106625012888001601750AR051ARKANSAS                  GARLAND                2026010102100002025
3078000000LITTLE ROCK-NORTH LITTLE ROCK-CONWAY, AR          GSE  S02320000832750106625012888001601750AR053ARKANSAS                  GRANT                  2026010102320002025
3750000000PARAGOULD, AR                                     GSE  S01500000832750106625012888001601750AR055ARKANSAS                  GREENE                 2026010101500002025
9999900000NON-METRO                                         GSE  S00810000832750106625012888001601750AR057ARKANSAS                  HEMPSTEAD              2026010102290002024
3168000000MALVERN, AR                                       GSE  S01200000832750106625012888001601750AR059ARKANSAS                  HOT SPRING             2026010101390002022
9999900000NON-METRO                                         GSE  S01280000832750106625012888001601750AR061ARKANSAS                  HOWARD                 2026010101280002025
1290000000BATESVILLE, AR                                    GSE  S01350000832750106625012888001601750AR063ARKANSAS                  INDEPENDENCE           2026010101350002025
9999900000NON-METRO                                         GSE  S01090000832750106625012888001601750AR065ARKANSAS                  IZARD                  2026010101090002025
9999900000NON-METRO                                         GSE  S00750000832750106625012888001601750AR067ARKANSAS                  JACKSON                2026010101400002024
3822000000PINE BLUFF, AR                                    GSE  S01630000832750106625012888001601750AR069ARKANSAS                  JEFFERSON              2026010101630002025
9999900000NON-METRO                                         GSE  S02180000832750106625012888001601750AR071ARKANSAS                  JOHNSON                2026010102180002025
9999900000NON-METRO                                         GSE  S00740000832750106625012888001601750AR073ARKANSAS                  LAFAYETTE              2026010100800002022
9999900000NON-METRO                                         GSE  S01000000832750106625012888001601750AR075ARKANSAS                  LAWRENCE               2026010101000002025
9999900000NON-METRO                                         GSE  S00700000832750106625012888001601750AR077ARKANSAS                  LEE                    2026010101220002020
9999900000NON-METRO                                         GSE  S01400000832750106625012888001601750AR079ARKANSAS                  LINCOLN                2026010101470002024
4550000000TEXARKANA, TX-AR                                  GSE  S01940000832750106625012888001601750AR081ARKANSAS                  LITTLE RIVER           2026010101940002025
9999900000NON-METRO                                         GSE  S01680000832750106625012888001601750AR083ARKANSAS                  LOGAN                  2026010101680002025
3078000000LITTLE ROCK-NORTH LITTLE ROCK-CONWAY, AR          GSE  S02320000832750106625012888001601750AR085ARKANSAS                  LONOKE                 2026010102320002025
2222000000FAYETTEVILLE-SPRINGDALE-ROGERS, AR                GSE  S03650000832750106625012888001601750AR087ARKANSAS                  MADISON                2026010103650002025
9999900000NON-METRO                                         GSE  S01470000832750106625012888001601750AR089ARKANSAS                  MARION                 2026010102040002024
4550000000TEXARKANA, TX-AR                                  GSE  S01940000832750106625012888001601750AR091ARKANSAS                  MILLER                 2026010101940002025
1418000000BLYTHEVILLE, AR                                   GSE  S01010000832750106625012888001601750AR093ARKANSAS                  MISSISSIPPI            2026010101080002019
9999900000NON-METRO                                         GSE  S01090000832750106625012888001601750AR095ARKANSAS                  MONROE                 2026010101120002022
9999900000NON-METRO                                         GSE  S01350000832750106625012888001601750AR097ARKANSAS                  MONTGOMERY             2026010101630002023
9999900000NON-METRO                                         GSE  S00700000832750106625012888001601750AR099ARKANSAS                  NEVADA                 2026010102290002024
2546000000HARRISON, AR                                      GSE  S01790000832750106625012888001601750AR101ARKANSAS                  NEWTON                 2026010101790002025
1578000000CAMDEN, AR                                        GSE  S00850000832750106625012888001601750AR103ARKANSAS                  OUACHITA               2026010101730002009
3078000000LITTLE ROCK-NORTH LITTLE ROCK-CONWAY, AR          GSE  S02320000832750106625012888001601750AR105ARKANSAS                  PERRY                  2026010102320002025
9999900000NON-METRO                                         GSE  S00400000832750106625012888001601750AR107ARKANSAS                  PHILLIPS               2026010100650002013
9999900000NON-METRO                                         GSE  S01070000832750106625012888001601750AR109ARKANSAS                  PIKE                   2026010101490002020
2786000000JONESBORO, AR                                     GSE  S02000000832750106625012888001601750AR111ARKANSAS                  POINSETT               2026010102000002025
9999900000NON-METRO                                         GSE  S01300000832750106625012888001601750AR113ARKANSAS                  POLK                   2026010101300002025
4078000000RUSSELLVILLE, AR                                  GSE  S01800000832750106625012888001601750AR115ARKANSAS                  POPE                   2026010101800002025
9999900000NON-METRO                                         GSE  S01160000832750106625012888001601750AR117ARKANSAS                  PRAIRIE                2026010101160002025
3078000000LITTLE ROCK-NORTH LITTLE ROCK-CONWAY, AR          GSE  S02320000832750106625012888001601750AR119ARKANSAS                  PULASKI                2026010102320002025
9999900000NON-METRO                                         GSE  S01200000832750106625012888001601750AR121ARKANSAS                  RANDOLPH               2026010101200002025
2262000000FORREST CITY, AR                                  GSE  S00600000832750106625012888001601750AR123ARKANSAS                  ST. FRANCIS            2026010100680002022
3078000000LITTLE ROCK-NORTH LITTLE ROCK-CONWAY, AR          GSE  S02320000832750106625012888001601750AR125ARKANSAS                  SALINE                 2026010102320002025
9999900000NON-METRO                                         GSE  S00600000832750106625012888001601750AR127ARKANSAS                  SCOTT                  2026010100890002022
9999900000NON-METRO                                         GSE  S01110000832750106625012888001601750AR129ARKANSAS                  SEARCY                 2026010101110002025
2290000000FORT SMITH, AR-OK                                 GSE  S01790000832750106625012888001601750AR131ARKANSAS                  SEBASTIAN              2026010101790002025
9999900000NON-METRO                                         GSE  S01120000832750106625012888001601750AR133ARKANSAS                  SEVIER                 2026010101120002025
9999900000NON-METRO                                         GSE  S01030000832750106625012888001601750AR135ARKANSAS                  SHARP                  2026010101200002024
9999900000NON-METRO                                         GSE  S01970000832750106625012888001601750AR137ARKANSAS                  STONE                  2026010101970002025
2098000000EL DORADO, AR                                     GSE  S01290000832750106625012888001601750AR139ARKANSAS                  UNION                  2026010101290002025
9999900000NON-METRO                                         GSE  S01170000832750106625012888001601750AR141ARKANSAS                  VAN BUREN              2026010101170002025
2222000000FAYETTEVILLE-SPRINGDALE-ROGERS, AR                GSE  S03650000832750106625012888001601750AR143ARKANSAS                  WASHINGTON             2026010103650002025
4262000000SEARCY, AR                                        GSE  S01700000832750106625012888001601750AR145ARKANSAS                  WHITE                  2026010101700002025
9999900000NON-METRO                                         GSE  S01280000832750106625012888001601750AR147ARKANSAS                  WOODRUFF               2026010101280002025
4078000000RUSSELLVILLE, AR                                  GSE  S01800000832750106625012888001601750AR149ARKANSAS                  YELL                   2026010101800002025
9999900000NON-METRO                                         GSE  S01060000832750106625012888001601750AS010AMERICAN SAMOA            EASTERN DISTRIC        2026010101220002008
9999900000NON-METRO                                         GSE  S01370000832750106625012888001601750AS020AMERICAN SAMOA            MANU'A DISTRICT        2026010102300002008
9999900000NON-METRO                                         GSE  S01350000832750106625012888001601750AS030AMERICAN SAMOA            ROSE ISLAND            2026010101350002025
9999900000NON-METRO                                         GSE  S01350000832750106625012888001601750AS040AMERICAN SAMOA            SWAINS ISLAND          2026010101350002025
9999900000NON-METRO                                         GSE  S01610000832750106625012888001601750AS050AMERICAN SAMOA            WESTERN DISTRIC        2026010101610002025
9999900000NON-METRO                                         GSE  S01180000832750106625012888001601750AZ001ARIZONA                   APACHE                 2026010101500002008
4342000000SIERRA VISTA-DOUGLAS, AZ                          GSE  S02350000832750106625012888001601750AZ003ARIZONA                   COCHISE                2026010102350002025
2238000000FLAGSTAFF, AZ                                     GSE  S05300000832750106625012888001601750AZ005ARIZONA                   COCONINO               2026010105300002025
3774000000PAYSON, AZ                                        GSE  S03350000832750106625012888001601750AZ007ARIZONA                   GILA                   2026010103350002025
4094000000SAFFORD, AZ                                       GSE  S02500000832750106625012888001601750AZ009ARIZONA                   GRAHAM                 2026010102500002025
9999900000NON-METRO                                         GSE  S01230000832750106625012888001601750AZ011ARIZONA                   GREENLEE               2026010101340002023
9999900000NON-METRO                                         GSE  S01500000832750106625012888001601750AZ012ARIZONA                   LA PAZ                 2026010101500002025
3806000000PHOENIX-MESA-CHANDLER, AZ                         GSE  S04850000832750106625012888001601750AZ013ARIZONA                   MARICOPA               2026010104850002025
2942000000LAKE HAVASU CITY-KINGMAN, AZ                      GSE  S02670000832750106625012888001601750AZ015ARIZONA                   MOHAVE                 2026010102670002025
4332000000SHOW LOW, AZ                                      GSE  S02940000832750106625012888001601750AZ017ARIZONA                   NAVAJO                 2026010102940002025
4606000000TUCSON, AZ                                        GSE  S03600000832750106625012888001601750AZ019ARIZONA                   PIMA                   2026010103600002025
3806000000PHOENIX-MESA-CHANDLER, AZ                         GSE  S04850000832750106625012888001601750AZ021ARIZONA                   PINAL                  2026010104850002025
3570000000NOGALES, AZ                                       GSE  S02750000832750106625012888001601750AZ023ARIZONA                   SANTA CRUZ             2026010102750002025
3915000000PRESCOTT VALLEY-PRESCOTT, AZ                      GSE  S04250000832750106625012888001601750AZ025ARIZONA                   YAVAPAI                2026010104250002025
4974000000YUMA, AZ                                          GSE  S02680000832750106625012888001601750AZ027ARIZONA                   YUMA                   2026010102680002025
4186036084SAN FRANCISCO-OAKLAND-FREMONT, CA                 GSE  H17500001249125159937519332002402625CA001CALIFORNIA                ALAMEDA                2026010117500002025
2382000000GARDNERVILLE RANCHOS, NV-CA                       GSE  S06400000832750106625012888001601750CA003CALIFORNIA                ALPINE                 2026010106400002025
9999900000NON-METRO                                         GSE  S03850000832750106625012888001601750CA005CALIFORNIA                AMADOR                 2026010103950002022
1702000000CHICO, CA                                         GSE  S02880000832750106625012888001601750CA007CALIFORNIA                BUTTE                  2026010103100002022
9999900000NON-METRO                                         GSE  S03850000832750106625012888001601750CA009CALIFORNIA                CALAVERAS              2026010103990002022
9999900000NON-METRO                                         GSE  S03950000832750106625012888001601750CA011CALIFORNIA                COLUSA                 2026010104000002024
4186036084SAN FRANCISCO-OAKLAND-FREMONT, CA                 GSE  H17500001249125159937519332002402625CA013CALIFORNIA                CONTRA COSTA           2026010117500002025
1886000000CRESCENT CITY, CA                                 GSE  S02950000832750106625012888001601750CA015CALIFORNIA                DEL NORTE              2026010102950002025
4090000000SACRAMENTO-ROSEVILLE-FOLSOM, CA                   GSE  S06650000832750106625012888001601750CA017CALIFORNIA                EL DORADO              2026010106650002025
2342000000FRESNO, CA                                        GSE  S04300000832750106625012888001601750CA019CALIFORNIA                FRESNO                 2026010104300002025
9999900000NON-METRO                                         GSE  S03000000832750106625012888001601750CA021CALIFORNIA                GLENN                  2026010103130002024
2170000000EUREKA-ARCATA, CA                                 GSE  S04000000832750106625012888001601750CA023CALIFORNIA                HUMBOLDT               2026010104000002022
2094000000EL CENTRO, CA                                     GSE  S03550000832750106625012888001601750CA025CALIFORNIA                IMPERIAL               2026010103550002025
1386000000BISHOP, CA                                        GSE  S04550000832750106625012888001601750CA027CALIFORNIA                INYO                   2026010104550002025
1254000000BAKERSFIELD-DELANO, CA                            GSE  S03650000832750106625012888001601750CA029CALIFORNIA                KERN                   2026010103650002025
2526000000HANFORD-CORCORAN, CA                              GSE  S03700000832750106625012888001601750CA031CALIFORNIA                KINGS                  2026010103700002025
1734000000CLEARLAKE, CA                                     GSE  S02600000832750106625012888001601750CA033CALIFORNIA                LAKE                   2026010102600002025
4500000000SUSANVILLE, CA                                    GSE  S02000000832750106625012888001601750CA035CALIFORNIA                LASSEN                 2026010102000002025
3108031084LOS ANGELES-LONG BEACH-ANAHEIM, CA                GSE  H13000001249125159937519332002402625CA037CALIFORNIA                LOS ANGELES            2026010113000002025
2342000000FRESNO, CA                                        GSE  S04300000832750106625012888001601750CA039CALIFORNIA                MADERA                 2026010104300002025
4186042034SAN FRANCISCO-OAKLAND-FREMONT, CA                 GSE  H17500001249125159937519332002402625CA041CALIFORNIA                MARIN                  2026010117500002025
9999900000NON-METRO                                         GSE  S03300000832750106625012888001601750CA043CALIFORNIA                MARIPOSA               2026010103300002025
4638000000UKIAH, CA                                         GSE  S04590000832750106625012888001601750CA045CALIFORNIA                MENDOCINO              2026010104750002022
3290000000MERCED, CA                                        GSE  S04200000832750106625012888001601750CA047CALIFORNIA                MERCED                 2026010104200002025
9999900000NON-METRO                                         GSE  S01750000832750106625012888001601750CA049CALIFORNIA                MODOC                  2026010101750002025
9999900000NON-METRO                                         GSE  S06700000832750106625012888001601750CA051CALIFORNIA                MONO                   2026010106750002024
4150000000SALINAS, CA                                       GSE  H08650000994750127345015393501913000CA053CALIFORNIA                MONTEREY               2026010108650002025
3490000000NAPA, CA                                          GSE  H08500001017750130290015749001957250CA055CALIFORNIA                NAPA                   2023010108850002022
4602000000TRUCKEE-GRASS VALLEY, CA                          GSE  S05650000832750106625012888001601750CA057CALIFORNIA                NEVADA                 2026010105650002025
3108011244LOS ANGELES-LONG BEACH-ANAHEIM, CA                GSE  H13000001249125159937519332002402625CA059CALIFORNIA                ORANGE                 2026010113000002025
4090000000SACRAMENTO-ROSEVILLE-FOLSOM, CA                   GSE  S06650000832750106625012888001601750CA061CALIFORNIA                PLACER                 2026010106650002025
9999900000NON-METRO                                         GSE  S03110000832750106625012888001601750CA063CALIFORNIA                PLUMAS                 2026010103110002025
4014000000RIVERSIDE-SAN BERNARDINO-ONTARIO, CA              GSE  S06000000832750106625012888001601750CA065CALIFORNIA                RIVERSIDE              2026010106000002025
4090000000SACRAMENTO-ROSEVILLE-FOLSOM, CA                   GSE  S06650000832750106625012888001601750CA067CALIFORNIA                SACRAMENTO             2026010106650002025
4194000000SAN JOSE-SUNNYVALE-SANTA CLARA, CA                GSE  H18200001249125159937519332002402625CA069CALIFORNIA                SAN BENITO             2026010118200002025
4014000000RIVERSIDE-SAN BERNARDINO-ONTARIO, CA              GSE  S06000000832750106625012888001601750CA071CALIFORNIA                SAN BERNARDINO         2026010106000002025
4174000000SAN DIEGO-CHULA VISTA-CARLSBAD, CA                GSE  H09600001104000141335017084002123100CA073CALIFORNIA                SAN DIEGO              2026010109600002025
4186041884SAN FRANCISCO-OAKLAND-FREMONT, CA                 GSE  H17500001249125159937519332002402625CA075CALIFORNIA                SAN FRANCISCO          2026010117500002025
4470000000STOCKTON-LODI, CA                                 GSE  S05890000832750106625012888001601750CA077CALIFORNIA                SAN JOAQUIN            2026010105900002024
4202000000SAN LUIS OBISPO-PASO ROBLES, CA                   GSE  H08700001000500128085015482501924100CA079CALIFORNIA                SAN LUIS OBISPO        2026010108700002025
4186041884SAN FRANCISCO-OAKLAND-FREMONT, CA                 GSE  H17500001249125159937519332002402625CA081CALIFORNIA                SAN MATEO              2026010117500002025
4220000000SANTA MARIA-SANTA BARBARA, CA                     GSE  H08190000941850120575014574501811300CA083CALIFORNIA                SANTA BARBARA          2026010108190002025
4194000000SAN JOSE-SUNNYVALE-SANTA CLARA, CA                GSE  H18200001249125159937519332002402625CA085CALIFORNIA                SANTA CLARA            2026010118200002025
4210000000SANTA CRUZ-WATSONVILLE, CA                        GSE  H11000001249125159937519332002402625CA087CALIFORNIA                SANTA CRUZ             2026010111000002025
3982000000REDDING, CA                                       GSE  S03500000832750106625012888001601750CA089CALIFORNIA                SHASTA                 2026010103500002024
9999900000NON-METRO                                         GSE  S02200000832750106625012888001601750CA091CALIFORNIA                SIERRA                 2026010102750002023
9999900000NON-METRO                                         GSE  S02050000832750106625012888001601750CA093CALIFORNIA                SISKIYOU               2026010102350002022
4670000000VALLEJO, CA                                       GSE  S05940000832750106625012888001601750CA095CALIFORNIA                SOLANO                 2026010105960002022
4222000000SANTA ROSA-PETALUMA, CA                           GSE  H07800000897000114835013880501725050CA097CALIFORNIA                SONOMA                 2025010107800002024
3370000000MODESTO, CA                                       GSE  S04740000832750106625012888001601750CA099CALIFORNIA                STANISLAUS             2026010104740002025
4970000000YUBA CITY, CA                                     GSE  S04520000832750106625012888001601750CA101CALIFORNIA                SUTTER                 2026010104520002025
3978000000RED BLUFF, CA                                     GSE  S02950000832750106625012888001601750CA103CALIFORNIA                TEHAMA                 2026010102950002025
9999900000NON-METRO                                         GSE  S01750000832750106625012888001601750CA105CALIFORNIA                TRINITY                2026010102400002021
4730000000VISALIA, CA                                       GSE  S03710000832750106625012888001601750CA107CALIFORNIA                TULARE                 2026010103710002025
4376000000SONORA, CA                                        GSE  S03720000832750106625012888001601750CA109CALIFORNIA                TUOLUMNE               2026010103720002025
3710000000OXNARD-THOUSAND OAKS-VENTURA, CA                  GSE  H09000001035000132500016016001990450CA111CALIFORNIA                VENTURA                2026010109000002025
4090000000SACRAMENTO-ROSEVILLE-FOLSOM, CA                   GSE  S06650000832750106625012888001601750CA113CALIFORNIA                YOLO                   2026010106650002025
4970000000YUBA CITY, CA                                     GSE  S04520000832750106625012888001601750CA115CALIFORNIA                YUBA                   2026010104520002025
1974000000DENVER-AURORA-CENTENNIAL, CO                      GSE  H07500000862500110415013347001658700CO001COLORADO                  ADAMS                  2026010107500002025
1048000000ALAMOSA, CO                                       GSE  S02820000832750106625012888001601750CO003COLORADO                  ALAMOSA                2026010102820002025
1974000000DENVER-AURORA-CENTENNIAL, CO                      GSE  H07500000862500110415013347001658700CO005COLORADO                  ARAPAHOE               2026010107500002025
9999900000NON-METRO                                         GSE  S04060000832750106625012888001601750CO007COLORADO                  ARCHULETA              2026010104450002024
9999900000NON-METRO                                         GSE  S01140000832750106625012888001601750CO009COLORADO                  BACA                   2026010101140002025
9999900000NON-METRO                                         GSE  S01350000832750106625012888001601750CO011COLORADO                  BENT                   2026010101350002025
1450000000BOULDER, CO                                       GSE  H07650000879750112625013613501691850CO013COLORADO                  BOULDER                2026010107650002025
1974000000DENVER-AURORA-CENTENNIAL, CO                      GSE  H07500000862500110415013347001658700CO014COLORADO                  BROOMFIELD             2026010107500002025
9999900000NON-METRO                                         GSE  S06200000832750106625012888001601750CO015COLORADO                  CHAFFEE                2026010106200002025
9999900000NON-METRO                                         GSE  S00820000832750106625012888001601750CO017COLORADO                  CHEYENNE               2026010101560002024
1974000000DENVER-AURORA-CENTENNIAL, CO                      GSE  H07500000862500110415013347001658700CO019COLORADO                  CLEAR CREEK            2026010107500002025
1048000000ALAMOSA, CO                                       GSE  S02820000832750106625012888001601750CO021COLORADO                  CONEJOS                2026010102820002025
1048000000ALAMOSA, CO                                       GSE  S02820000832750106625012888001601750CO023COLORADO                  COSTILLA               2026010102820002025
9999900000NON-METRO                                         GSE  S01260000832750106625012888001601750CO025COLORADO                  CROWLEY                2026010101670002023
9999900000NON-METRO                                         GSE  S02500000832750106625012888001601750CO027COLORADO                  CUSTER                 2026010102800002024
9999900000NON-METRO                                         GSE  S03500000832750106625012888001601750CO029COLORADO                  DELTA                  2026010103500002025
1974000000DENVER-AURORA-CENTENNIAL, CO                      GSE  H07500000862500110415013347001658700CO031COLORADO                  DENVER                 2026010107500002025
9999900000NON-METRO                                         GSE  S04500000832750106625012888001601750CO033COLORADO                  DOLORES                2026010104500002025
1974000000DENVER-AURORA-CENTENNIAL, CO                      GSE  H07500000862500110415013347001658700CO035COLORADO                  DOUGLAS                2026010107500002025
2078000000EDWARDS, CO                                       GSE  H12250001249125159937519332002402625CO037COLORADO                  EAGLE                  2026010112250002025
1974000000DENVER-AURORA-CENTENNIAL, CO                      GSE  H07500000862500110415013347001658700CO039COLORADO                  ELBERT                 2026010107500002025
1782000000COLORADO SPRINGS, CO                              GSE  S04710000832750106625012888001601750CO041COLORADO                  EL PASO                2026010104710002025
1586000000CANON CITY, CO                                    GSE  S02980000832750106625012888001601750CO043COLORADO                  FREMONT                2026010102980002025
4009000000RIFLE, CO                                         GSE  H10000001209750154897518722252326875CO045COLORADO                  GARFIELD               2025010111250002024
1974000000DENVER-AURORA-CENTENNIAL, CO                      GSE  H07500000862500110415013347001658700CO047COLORADO                  GILPIN                 2026010107500002025
9999900000NON-METRO                                         GSE  H07680000883200113065013667001698500CO049COLORADO                  GRAND                  2026010107680002025
9999900000NON-METRO                                         GSE  S05840000832750106625012888001601750CO051COLORADO                  GUNNISON               2026010106500002024
9999900000NON-METRO                                         GSE  S04900000832750106625012888001601750CO053COLORADO                  HINSDALE               2026010104900002025
9999900000NON-METRO                                         GSE  S01530000832750106625012888001601750CO055COLORADO                  HUERFANO               2026010101650002022
9999900000NON-METRO                                         GSE  S02890000832750106625012888001601750CO057COLORADO                  JACKSON                2026010102890002025
1974000000DENVER-AURORA-CENTENNIAL, CO                      GSE  H07500000862500110415013347001658700CO059COLORADO                  JEFFERSON              2026010107500002025
9999900000NON-METRO                                         GSE  S00640000832750106625012888001601750CO061COLORADO                  KIOWA                  2026010101110002023
9999900000NON-METRO                                         GSE  S02250000832750106625012888001601750CO063COLORADO                  KIT CARSON             2026010102580002024
1472000000BRECKENRIDGE, CO                                  GSE  H09500001092500139860016906002101000CO065COLORADO                  LAKE                   2026010109500002025
2042000000DURANGO, CO                                       GSE  S06500000832750106625012888001601750CO067COLORADO                  LA PLATA               2026010106500002025
2266000000FORT COLLINS-LOVELAND, CO                         GSE  S05520000832750106625012888001601750CO069COLORADO                  LARIMER                2026010105520002025
9999900000NON-METRO                                         GSE  S02000000832750106625012888001601750CO071COLORADO                  LAS ANIMAS             2026010102000002024
9999900000NON-METRO                                         GSE  S01980000832750106625012888001601750CO073COLORADO                  LINCOLN                2026010102000002024
4454000000STERLING, CO                                      GSE  S02190000832750106625012888001601750CO075COLORADO                  LOGAN                  2026010102250002024
2430000000GRAND JUNCTION, CO                                GSE  S04000000832750106625012888001601750CO077COLORADO                  MESA                   2026010104000002025
9999900000NON-METRO                                         GSE  S03380000832750106625012888001601750CO079COLORADO                  MINERAL                2026010103380002025
4446000000STEAMBOAT SPRINGS, CO                             GSE  H09470001089050139420016852502094350CO081COLORADO                  MOFFAT                 2026010109470002025
9999900000NON-METRO                                         GSE  S03300000832750106625012888001601750CO083COLORADO                  MONTEZUMA              2026010103300002025
3394000000MONTROSE, CO                                      GSE  S04200000832750106625012888001601750CO085COLORADO                  MONTROSE               2026010106530002024
2282000000FORT MORGAN, CO                                   GSE  S03350000832750106625012888001601750CO087COLORADO                  MORGAN                 2026010103350002025
9999900000NON-METRO                                         GSE  S01500000832750106625012888001601750CO089COLORADO                  OTERO                  2026010101500002025
9999900000NON-METRO                                         GSE  S06500000832750106625012888001601750CO091COLORADO                  OURAY                  2026010106530002024
1974000000DENVER-AURORA-CENTENNIAL, CO                      GSE  H07500000862500110415013347001658700CO093COLORADO                  PARK                   2026010107500002025
9999900000NON-METRO                                         GSE  S02100000832750106625012888001601750CO095COLORADO                  PHILLIPS               2026010102130002024
4009000000RIFLE, CO                                         GSE  H10000001209750154897518722252326875CO097COLORADO                  PITKIN                 2025010111250002024
9999900000NON-METRO                                         GSE  S02000000832750106625012888001601750CO099COLORADO                  PROWERS                2026010102000002025
3938000000PUEBLO, CO                                        GSE  S02820000832750106625012888001601750CO101COLORADO                  PUEBLO                 2026010102820002025
9999900000NON-METRO                                         GSE  S02390000832750106625012888001601750CO103COLORADO                  RIO BLANCO             2026010102390002025
9999900000NON-METRO                                         GSE  S02140000832750106625012888001601750CO105COLORADO                  RIO GRANDE             2026010102140002025
4446000000STEAMBOAT SPRINGS, CO                             GSE  H09470001089050139420016852502094350CO107COLORADO                  ROUTT                  2026010109470002025
9999900000NON-METRO                                         GSE  S02000000832750106625012888001601750CO109COLORADO                  SAGUACHE               2026010102000002025
9999900000NON-METRO                                         GSE  S04100000832750106625012888001601750CO111COLORADO                  SAN JUAN               2026010104500002023
9999900000NON-METRO                                         GSE  H06500000994750127345015393501913000CO113COLORADO                  SAN MIGUEL             2024010108650002023
9999900000NON-METRO                                         GSE  S01470000832750106625012888001601750CO115COLORADO                  SEDGWICK               2026010101470002025
1472000000BRECKENRIDGE, CO                                  GSE  H09500001092500139860016906002101000CO117COLORADO                  SUMMIT                 2026010109500002025
1782000000COLORADO SPRINGS, CO                              GSE  S04710000832750106625012888001601750CO119COLORADO                  TELLER                 2026010104710002025
9999900000NON-METRO                                         GSE  S02300000832750106625012888001601750CO121COLORADO                  WASHINGTON             2026010102300002024
2454000000GREELEY, CO                                       GSE  S05000000832750106625012888001601750CO123COLORADO                  WELD                   2026010105000002025
9999900000NON-METRO                                         GSE  S02050000832750106625012888001601750CO125COLORADO                  YUMA                   2026010102050002025
2554000000HARTFORD-WEST HARTFORD-EAST HARTFORD, CT          GSE  S04500000832750106625012888001601750CT110CONNECTICUT               CAPITOL PLANNIN        2026010104500002025
1486000000BRIDGEPORT-STAMFORD-DANBURY, CT                   GSE  H08500000977500125140015126501879850CT120CONNECTICUT               GREATER BRIDGEP        2026010108500002025
2554000000HARTFORD-WEST HARTFORD-EAST HARTFORD, CT          GSE  S04500000832750106625012888001601750CT130CONNECTICUT               LOWER CONNECTIC        2026010104500002025
4793000000WATERBURY-SHELTON, CT                             GSE  H03600000851000108945013169001636550CT140CONNECTICUT               NAUGATUCK VALLE        2026010103600002025
3948000000PUTNAM, CT                                        GSE  S03600000832750106625012888001601750CT150CONNECTICUT               NORTHEASTERN CO        2026010103600002025
4586000000TORRINGTON, CT                                    GSE  S03750000832750106625012888001601750CT160CONNECTICUT               NORTHWEST HILLS        2026010103750002025
3530000000NEW HAVEN, CT                                     GSE  S04100000832750106625012888001601750CT170CONNECTICUT               SOUTH CENTRAL C        2026010104100002025
3598000000NORWICH-NEW LONDON-WILLIMANTIC, CT                GSE  S03650000832750106625012888001601750CT180CONNECTICUT               SOUTHEASTERN CO        2026010103650002025
1486000000BRIDGEPORT-STAMFORD-DANBURY, CT                   GSE  H08500000977500125140015126501879850CT190CONNECTICUT               WESTERN CONNECT        2026010108500002025
4790047764WASHINGTON-ARLINGTON-ALEXANDRIA, DC-VA-MD-WV      GSE  H11980001249125159937519332002402625DC001DISTRICT OF COLUMBIA      DISTRICT OF COL        2026010111980002025
2010000000DOVER, DE                                         GSE  S03490000832750106625012888001601750DE001DELAWARE                  KENT                   2026010103490002025
3798048864PHILADELPHIA-CAMDEN-WILMINGTON, PA-NJ-DE-MD       GSE  S05480000832750106625012888001601750DE003DELAWARE                  NEW CASTLE             2026010105480002025
4258000000SEAFORD, DE                                       GSE  S04460000832750106625012888001601750DE005DELAWARE                  SUSSEX                 2026010104460002025
2354000000GAINESVILLE, FL                                   GSE  S03150000832750106625012888001601750FL001FLORIDA                   ALACHUA                2026010103150002025
2726000000JACKSONVILLE, FL                                  GSE  S04860000832750106625012888001601750FL003FLORIDA                   BAKER                  2026010105050002024
3746000000PANAMA CITY-PANAMA CITY BEACH, FL                 GSE  S03300000832750106625012888001601750FL005FLORIDA                   BAY                    2026010103300002025
9999900000NON-METRO                                         GSE  S02100000832750106625012888001601750FL007FLORIDA                   BRADFORD               2026010102100002025
3734000000PALM BAY-MELBOURNE-TITUSVILLE, FL                 GSE  S03490000832750106625012888001601750FL009FLORIDA                   BREVARD                2026010103490002025
3310022744MIAMI-FORT LAUDERDALE-WEST PALM BEACH, FL         GSE  S05800000832750106625012888001601750FL011FLORIDA                   BROWARD                2026010105800002025
9999900000NON-METRO                                         GSE  S00920000832750106625012888001601750FL013FLORIDA                   CALHOUN                2026010101100002024
3946000000PUNTA GORDA, FL                                   GSE  S03150000832750106625012888001601750FL015FLORIDA                   CHARLOTTE              2026010103290002023
2614000000HOMOSASSA SPRINGS, FL                             GSE  S02470000832750106625012888001601750FL017FLORIDA                   CITRUS                 2026010102470002025
2726000000JACKSONVILLE, FL                                  GSE  S04860000832750106625012888001601750FL019FLORIDA                   CLAY                   2026010105050002024
3494000000NAPLES-MARCO ISLAND, FL                           GSE  S06500000832750106625012888001601750FL021FLORIDA                   COLLIER                2026010106650002024
2938000000LAKE CITY, FL                                     GSE  S01800000832750106625012888001601750FL023FLORIDA                   COLUMBIA               2026010101800002025
1158000000ARCADIA, FL                                       GSE  S02300000832750106625012888001601750FL027FLORIDA                   DESOTO                 2026010102300002025
9999900000NON-METRO                                         GSE  S01090000832750106625012888001601750FL029FLORIDA                   DIXIE                  2026010101090002025
2726000000JACKSONVILLE, FL                                  GSE  S04860000832750106625012888001601750FL031FLORIDA                   DUVAL                  2026010105050002024
3786000000PENSACOLA-FERRY PASS-BRENT, FL                    GSE  S03300000832750106625012888001601750FL033FLORIDA                   ESCAMBIA               2026010103300002025
1966000000DELTONA-DAYTONA BEACH-ORMOND BEACH, FL            GSE  S03510000832750106625012888001601750FL035FLORIDA                   FLAGLER                2026010103510002025
9999900000NON-METRO                                         GSE  S02300000832750106625012888001601750FL037FLORIDA                   FRANKLIN               2026010102300002025
4522000000TALLAHASSEE, FL                                   GSE  S02770000832750106625012888001601750FL039FLORIDA                   GADSDEN                2026010102770002025
2354000000GAINESVILLE, FL                                   GSE  S03150000832750106625012888001601750FL041FLORIDA                   GILCHRIST              2026010103150002025
1750000000CLEWISTON, FL                                     GSE  S02450000832750106625012888001601750FL043FLORIDA                   GLADES                 2026010102450002025
9999900000NON-METRO                                         GSE  S03350000832750106625012888001601750FL045FLORIDA                   GULF                   2026010103350002025
9999900000NON-METRO                                         GSE  S01100000832750106625012888001601750FL047FLORIDA                   HAMILTON               2026010101100002022
9999900000NON-METRO                                         GSE  S01750000832750106625012888001601750FL049FLORIDA                   HARDEE                 2026010101750002025
1750000000CLEWISTON, FL                                     GSE  S02450000832750106625012888001601750FL051FLORIDA                   HENDRY                 2026010102450002025
4530045294TAMPA-ST. PETERSBURG-CLEARWATER, FL               GSE  S04000000832750106625012888001601750FL053FLORIDA                   HERNANDO               2026010104150002024
4270000000SEBRING, FL                                       GSE  S02250000832750106625012888001601750FL055FLORIDA                   HIGHLANDS              2026010102250002025
4530045294TAMPA-ST. PETERSBURG-CLEARWATER, FL               GSE  S04000000832750106625012888001601750FL057FLORIDA                   HILLSBOROUGH           2026010104150002024
9999900000NON-METRO                                         GSE  S01300000832750106625012888001601750FL059FLORIDA                   HOLMES                 2026010101300002025
4268000000SEBASTIAN-VERO BEACH-WEST VERO CORRIDOR, FL       GSE  S03840000832750106625012888001601750FL061FLORIDA                   INDIAN RIVER           2026010103840002025
9999900000NON-METRO                                         GSE  S01300000832750106625012888001601750FL063FLORIDA                   JACKSON                2026010101300002023
4522000000TALLAHASSEE, FL                                   GSE  S02770000832750106625012888001601750FL065FLORIDA                   JEFFERSON              2026010102770002025
9999900000NON-METRO                                         GSE  S01190000832750106625012888001601750FL067FLORIDA                   LAFAYETTE              2026010101190002025
3674000000ORLANDO-KISSIMMEE-SANFORD, FL                     GSE  S04530000832750106625012888001601750FL069FLORIDA                   LAKE                   2026010104530002025
1598000000CAPE CORAL-FORT MYERS, FL                         GSE  S03640000832750106625012888001601750FL071FLORIDA                   LEE                    2026010103700002023
4522000000TALLAHASSEE, FL                                   GSE  S02770000832750106625012888001601750FL073FLORIDA                   LEON                   2026010102770002025
2354000000GAINESVILLE, FL                                   GSE  S03150000832750106625012888001601750FL075FLORIDA                   LEVY                   2026010103150002025
9999900000NON-METRO                                         GSE  S00850000832750106625012888001601750FL077FLORIDA                   LIBERTY                2026010101000002008
9999900000NON-METRO                                         GSE  S00900000832750106625012888001601750FL079FLORIDA                   MADISON                2026010100950002009
3584000000NORTH PORT-BRADENTON-SARASOTA, FL                 GSE  S04330000832750106625012888001601750FL081FLORIDA                   MANATEE                2026010104760002023
3610000000OCALA, FL                                         GSE  S02700000832750106625012888001601750FL083FLORIDA                   MARION                 2026010102700002025
3894000000PORT ST. LUCIE, FL                                GSE  S05250000832750106625012888001601750FL085FLORIDA                   MARTIN                 2026010105250002025
3310033124MIAMI-FORT LAUDERDALE-WEST PALM BEACH, FL         GSE  S05800000832750106625012888001601750FL086FLORIDA                   MIAMI-DADE             2026010105800002025
2858000000KEY WEST-KEY LARGO, FL                            GSE  H08610000990150126760015322001904150FL087FLORIDA                   MONROE                 2026010108610002025
2726000000JACKSONVILLE, FL                                  GSE  S04860000832750106625012888001601750FL089FLORIDA                   NASSAU                 2026010105050002024
1888000000CRESTVIEW-FORT WALTON BEACH-DESTIN, FL            GSE  S05050000832750106625012888001601750FL091FLORIDA                   OKALOOSA               2026010105250002022
3638000000OKEECHOBEE, FL                                    GSE  S01650000832750106625012888001601750FL093FLORIDA                   OKEECHOBEE             2026010101650002025
3674000000ORLANDO-KISSIMMEE-SANFORD, FL                     GSE  S04530000832750106625012888001601750FL095FLORIDA                   ORANGE                 2026010104530002025
3674000000ORLANDO-KISSIMMEE-SANFORD, FL                     GSE  S04530000832750106625012888001601750FL097FLORIDA                   OSCEOLA                2026010104530002025
3310048424MIAMI-FORT LAUDERDALE-WEST PALM BEACH, FL         GSE  S05800000832750106625012888001601750FL099FLORIDA                   PALM BEACH             2026010105800002025
4530045294TAMPA-ST. PETERSBURG-CLEARWATER, FL               GSE  S04000000832750106625012888001601750FL101FLORIDA                   PASCO                  2026010104150002024
4530041304TAMPA-ST. PETERSBURG-CLEARWATER, FL               GSE  S04000000832750106625012888001601750FL103FLORIDA                   PINELLAS               2026010104150002024
2946000000LAKELAND-WINTER HAVEN, FL                         GSE  S03040000832750106625012888001601750FL105FLORIDA                   POLK                   2026010103150002023
3726000000PALATKA, FL                                       GSE  S01340000832750106625012888001601750FL107FLORIDA                   PUTNAM                 2026010101340002025
2726000000JACKSONVILLE, FL                                  GSE  S04860000832750106625012888001601750FL109FLORIDA                   ST. JOHNS              2026010105050002024
3894000000PORT ST. LUCIE, FL                                GSE  S05250000832750106625012888001601750FL111FLORIDA                   ST. LUCIE              2026010105250002025
3786000000PENSACOLA-FERRY PASS-BRENT, FL                    GSE  S03300000832750106625012888001601750FL113FLORIDA                   SANTA ROSA             2026010103300002025
3584000000NORTH PORT-BRADENTON-SARASOTA, FL                 GSE  S04330000832750106625012888001601750FL115FLORIDA                   SARASOTA               2026010104760002023
3674000000ORLANDO-KISSIMMEE-SANFORD, FL                     GSE  S04530000832750106625012888001601750FL117FLORIDA                   SEMINOLE               2026010104530002025
4868000000WILDWOOD-THE VILLAGES, FL                         GSE  S03800000832750106625012888001601750FL119FLORIDA                   SUMTER                 2026010103800002025
9999900000NON-METRO                                         GSE  S01450000832750106625012888001601750FL121FLORIDA                   SUWANNEE               2026010101450002025
9999900000NON-METRO                                         GSE  S01290000832750106625012888001601750FL123FLORIDA                   TAYLOR                 2026010101290002025
9999900000NON-METRO                                         GSE  S01810000832750106625012888001601750FL125FLORIDA                   UNION                  2026010101810002025
1966000000DELTONA-DAYTONA BEACH-ORMOND BEACH, FL            GSE  S03510000832750106625012888001601750FL127FLORIDA                   VOLUSIA                2026010103510002025
4522000000TALLAHASSEE, FL                                   GSE  S02770000832750106625012888001601750FL129FLORIDA                   WAKULLA                2026010102770002025
1888000000CRESTVIEW-FORT WALTON BEACH-DESTIN, FL            GSE  S05050000832750106625012888001601750FL131FLORIDA                   WALTON                 2026010105250002022
3746000000PANAMA CITY-PANAMA CITY BEACH, FL                 GSE  S03300000832750106625012888001601750FL133FLORIDA                   WASHINGTON             2026010103300002025
9999900000NON-METRO                                         GSE  S00750000832750106625012888001601750GA001GEORGIA                   APPLING                2026010101230002009
2006000000DOUGLAS, GA                                       GSE  S01000000832750106625012888001601750GA003GEORGIA                   ATKINSON               2026010101250002008
9999900000NON-METRO                                         GSE  S00650000832750106625012888001601750GA005GEORGIA                   BACON                  2026010100810002008
9999900000NON-METRO                                         GSE  S00300000832750106625012888001601750GA007GEORGIA                   BAKER                  2026010101140002022
3330000000MILLEDGEVILLE, GA                                 GSE  S01900000832750106625012888001601750GA009GEORGIA                   BALDWIN                2026010101900002025
9999900000NON-METRO                                         GSE  S02880000832750106625012888001601750GA011GEORGIA                   BANKS                  2026010102880002025
1206012054ATLANTA-SANDY SPRINGS-ROSWELL, GA                 GSE  S06250000832750106625012888001601750GA013GEORGIA                   BARROW                 2026010106250002025
1206031924ATLANTA-SANDY SPRINGS-ROSWELL, GA                 GSE  S06250000832750106625012888001601750GA015GEORGIA                   BARTOW                 2026010106250002025
2234000000FITZGERALD, GA                                    GSE  S00800000832750106625012888001601750GA017GEORGIA                   BEN HILL               2026010100880002008
9999900000NON-METRO                                         GSE  S01380000832750106625012888001601750GA019GEORGIA                   BERRIEN                2026010101380002025
3142000000MACON-BIBB COUNTY, GA                             GSE  S02500000832750106625012888001601750GA021GEORGIA                   BIBB                   2026010102500002025
9999900000NON-METRO                                         GSE  S01070000832750106625012888001601750GA023GEORGIA                   BLECKLEY               2026010101290002024
1526000000BRUNSWICK-ST. SIMONS, GA                          GSE  S03300000832750106625012888001601750GA025GEORGIA                   BRANTLEY               2026010103300002025
4666000000VALDOSTA, GA                                      GSE  S02350000832750106625012888001601750GA027GEORGIA                   BROOKS                 2026010102350002025
4234000000SAVANNAH, GA                                      GSE  S03950000832750106625012888001601750GA029GEORGIA                   BRYAN                  2026010103950002025
4434000000STATESBORO, GA                                    GSE  S02800000832750106625012888001601750GA031GEORGIA                   BULLOCH                2026010102800002025
1226000000AUGUSTA-RICHMOND COUNTY, GA-SC                    GSE  S03150000832750106625012888001601750GA033GEORGIA                   BURKE                  2026010103150002025
1206012054ATLANTA-SANDY SPRINGS-ROSWELL, GA                 GSE  S06250000832750106625012888001601750GA035GEORGIA                   BUTTS                  2026010106250002025
9999900000NON-METRO                                         GSE  S00570000832750106625012888001601750GA037GEORGIA                   CALHOUN                2026010100780002009
2868000000KINGSLAND, GA                                     GSE  S02670000832750106625012888001601750GA039GEORGIA                   CAMDEN                 2026010102670002025
9999900000NON-METRO                                         GSE  S01700000832750106625012888001601750GA043GEORGIA                   CANDLER                2026010101700002025
1206012054ATLANTA-SANDY SPRINGS-ROSWELL, GA                 GSE  S06250000832750106625012888001601750GA045GEORGIA                   CARROLL                2026010106250002025
1686000000CHATTANOOGA, TN-GA                                GSE  S03500000832750106625012888001601750GA047GEORGIA                   CATOOSA                2026010103500002025
9999900000NON-METRO                                         GSE  S01370000832750106625012888001601750GA049GEORGIA                   CHARLTON               2026010101370002025
4234000000SAVANNAH, GA                                      GSE  S03950000832750106625012888001601750GA051GEORGIA                   CHATHAM                2026010103950002025
1798000000COLUMBUS, GA-AL                                   GSE  S03250000832750106625012888001601750GA053GEORGIA                   CHATTAHOOCHEE          2026010103250002025
4490000000SUMMERVILLE, GA                                   GSE  S01150000832750106625012888001601750GA055GEORGIA                   CHATTOOGA              2026010101240002009
1206031924ATLANTA-SANDY SPRINGS-ROSWELL, GA                 GSE  S06250000832750106625012888001601750GA057GEORGIA                   CHEROKEE               2026010106250002025
1202000000ATHENS-CLARKE COUNTY, GA                          GSE  S05360000832750106625012888001601750GA059GEORGIA                   CLARKE                 2026010105360002025
9999900000NON-METRO                                         GSE  S01000000832750106625012888001601750GA061GEORGIA                   CLAY                   2026010101120002008
1206012054ATLANTA-SANDY SPRINGS-ROSWELL, GA                 GSE  S06250000832750106625012888001601750GA063GEORGIA                   CLAYTON                2026010106250002025
9999900000NON-METRO                                         GSE  S00570000832750106625012888001601750GA065GEORGIA                   CLINCH                 2026010101220002008
1206031924ATLANTA-SANDY SPRINGS-ROSWELL, GA                 GSE  S06250000832750106625012888001601750GA067GEORGIA                   COBB                   2026010106250002025
2006000000DOUGLAS, GA                                       GSE  S01000000832750106625012888001601750GA069GEORGIA                   COFFEE                 2026010101250002008
3422000000MOULTRIE, GA                                      GSE  S01450000832750106625012888001601750GA071GEORGIA                   COLQUITT               2026010101450002025
1226000000AUGUSTA-RICHMOND COUNTY, GA-SC                    GSE  S03150000832750106625012888001601750GA073GEORGIA                   COLUMBIA               2026010103150002025
9999900000NON-METRO                                         GSE  S01410000832750106625012888001601750GA075GEORGIA                   COOK                   2026010101410002025
1206012054ATLANTA-SANDY SPRINGS-ROSWELL, GA                 GSE  S06250000832750106625012888001601750GA077GEORGIA                   COWETA                 2026010106250002025
3142000000MACON-BIBB COUNTY, GA                             GSE  S02500000832750106625012888001601750GA079GEORGIA                   CRAWFORD               2026010102500002025
1838000000CORDELE, GA                                       GSE  S01300000832750106625012888001601750GA081GEORGIA                   CRISP                  2026010101300002025
1686000000CHATTANOOGA, TN-GA                                GSE  S03500000832750106625012888001601750GA083GEORGIA                   DADE                   2026010103500002025
1206012054ATLANTA-SANDY SPRINGS-ROSWELL, GA                 GSE  S06250000832750106625012888001601750GA085GEORGIA                   DAWSON                 2026010106250002025
1246000000BAINBRIDGE, GA                                    GSE  S01480000832750106625012888001601750GA087GEORGIA                   DECATUR                2026010101480002025
1206012054ATLANTA-SANDY SPRINGS-ROSWELL, GA                 GSE  S06250000832750106625012888001601750GA089GEORGIA                   DEKALB                 2026010106250002025
9999900000NON-METRO                                         GSE  S01070000832750106625012888001601750GA091GEORGIA                   DODGE                  2026010101070002024
9999900000NON-METRO                                         GSE  S00900000832750106625012888001601750GA093GEORGIA                   DOOLY                  2026010100900002025
1050000000ALBANY, GA                                        GSE  S02450000832750106625012888001601750GA095GEORGIA                   DOUGHERTY              2026010102450002025
1206012054ATLANTA-SANDY SPRINGS-ROSWELL, GA                 GSE  S06250000832750106625012888001601750GA097GEORGIA                   DOUGLAS                2026010106250002025
9999900000NON-METRO                                         GSE  S00780000832750106625012888001601750GA099GEORGIA                   EARLY                  2026010100990002008
4666000000VALDOSTA, GA                                      GSE  S02350000832750106625012888001601750GA101GEORGIA                   ECHOLS                 2026010102350002025
4234000000SAVANNAH, GA                                      GSE  S03950000832750106625012888001601750GA103GEORGIA                   EFFINGHAM              2026010103950002025
9999900000NON-METRO                                         GSE  S00980000832750106625012888001601750GA105GEORGIA                   ELBERT                 2026010101030002008
9999900000NON-METRO                                         GSE  S00800000832750106625012888001601750GA107GEORGIA                   EMANUEL                2026010100890002008
4434000000STATESBORO, GA                                    GSE  S02800000832750106625012888001601750GA109GEORGIA                   EVANS                  2026010102800002025
9999900000NON-METRO                                         GSE  S04250000832750106625012888001601750GA111GEORGIA                   FANNIN                 2026010104250002025
1206012054ATLANTA-SANDY SPRINGS-ROSWELL, GA                 GSE  S06250000832750106625012888001601750GA113GEORGIA                   FAYETTE                2026010106250002025
4066000000ROME, GA                                          GSE  S02000000832750106625012888001601750GA115GEORGIA                   FLOYD                  2026010102000002025
1206012054ATLANTA-SANDY SPRINGS-ROSWELL, GA                 GSE  S06250000832750106625012888001601750GA117GEORGIA                   FORSYTH                2026010106250002025
9999900000NON-METRO                                         GSE  S01940000832750106625012888001601750GA119GEORGIA                   FRANKLIN               2026010101940002025
1206012054ATLANTA-SANDY SPRINGS-ROSWELL, GA                 GSE  S06250000832750106625012888001601750GA121GEORGIA                   FULTON                 2026010106250002025
9999900000NON-METRO                                         GSE  S01950000832750106625012888001601750GA123GEORGIA                   GILMER                 2026010101950002025
9999900000NON-METRO                                         GSE  S00650000832750106625012888001601750GA125GEORGIA                   GLASCOCK               2026010101140002024
1526000000BRUNSWICK-ST. SIMONS, GA                          GSE  S03300000832750106625012888001601750GA127GEORGIA                   GLYNN                  2026010103300002025
1566000000CALHOUN, GA                                       GSE  S02450000832750106625012888001601750GA129GEORGIA                   GORDON                 2026010102450002025
4562000000THOMASVILLE, GA                                   GSE  S02250000832750106625012888001601750GA131GEORGIA                   GRADY                  2026010102250002025
9999900000NON-METRO                                         GSE  S05550000832750106625012888001601750GA133GEORGIA                   GREENE                 2026010105550002025
1206012054ATLANTA-SANDY SPRINGS-ROSWELL, GA                 GSE  S06250000832750106625012888001601750GA135GEORGIA                   GWINNETT               2026010106250002025
1846000000CORNELIA, GA                                      GSE  S02850000832750106625012888001601750GA137GEORGIA                   HABERSHAM              2026010102850002025
2358000000GAINESVILLE, GA                                   GSE  S03890000832750106625012888001601750GA139GEORGIA                   HALL                   2026010103890002025
9999900000NON-METRO                                         GSE  S00850000832750106625012888001601750GA141GEORGIA                   HANCOCK                2026010101660002008
1206031924ATLANTA-SANDY SPRINGS-ROSWELL, GA                 GSE  S06250000832750106625012888001601750GA143GEORGIA                   HARALSON               2026010106250002025
1798000000COLUMBUS, GA-AL                                   GSE  S03250000832750106625012888001601750GA145GEORGIA                   HARRIS                 2026010103250002025
9999900000NON-METRO                                         GSE  S02350000832750106625012888001601750GA147GEORGIA                   HART                   2026010102350002025
1206012054ATLANTA-SANDY SPRINGS-ROSWELL, GA                 GSE  S06250000832750106625012888001601750GA149GEORGIA                   HEARD                  2026010106250002025
1206012054ATLANTA-SANDY SPRINGS-ROSWELL, GA                 GSE  S06250000832750106625012888001601750GA151GEORGIA                   HENRY                  2026010106250002025
4758000000WARNER ROBINS, GA                                 GSE  S02590000832750106625012888001601750GA153GEORGIA                   HOUSTON                2026010102590002025
9999900000NON-METRO                                         GSE  S00940000832750106625012888001601750GA155GEORGIA                   IRWIN                  2026010101030002024
2760000000JEFFERSON, GA                                     GSE  S04000000832750106625012888001601750GA157GEORGIA                   JACKSON                2026010104000002025
1206012054ATLANTA-SANDY SPRINGS-ROSWELL, GA                 GSE  S06250000832750106625012888001601750GA159GEORGIA                   JASPER                 2026010106250002025
9999900000NON-METRO                                         GSE  S00850000832750106625012888001601750GA161GEORGIA                   JEFF DAVIS             2026010101100002008
9999900000NON-METRO                                         GSE  S00580000832750106625012888001601750GA163GEORGIA                   JEFFERSON              2026010100850002009
9999900000NON-METRO                                         GSE  S00730000832750106625012888001601750GA165GEORGIA                   JENKINS                2026010101000002024
2014000000DUBLIN, GA                                        GSE  S01450000832750106625012888001601750GA167GEORGIA                   JOHNSON                2026010101450002025
3142000000MACON-BIBB COUNTY, GA                             GSE  S02500000832750106625012888001601750GA169GEORGIA                   JONES                  2026010102500002025
9999900000NON-METRO                                         GSE  S02600000832750106625012888001601750GA171GEORGIA                   LAMAR                  2026010105990002024
4666000000VALDOSTA, GA                                      GSE  S02350000832750106625012888001601750GA173GEORGIA                   LANIER                 2026010102350002025
2014000000DUBLIN, GA                                        GSE  S01450000832750106625012888001601750GA175GEORGIA                   LAURENS                2026010101450002025
1050000000ALBANY, GA                                        GSE  S02450000832750106625012888001601750GA177GEORGIA                   LEE                    2026010102450002025
2598000000HINESVILLE, GA                                    GSE  S02770000832750106625012888001601750GA179GEORGIA                   LIBERTY                2026010102770002025
1226000000AUGUSTA-RICHMOND COUNTY, GA-SC                    GSE  S03150000832750106625012888001601750GA181GEORGIA                   LINCOLN                2026010103150002025
2598000000HINESVILLE, GA                                    GSE  S02770000832750106625012888001601750GA183GEORGIA                   LONG                   2026010102770002025
4666000000VALDOSTA, GA                                      GSE  S02350000832750106625012888001601750GA185GEORGIA                   LOWNDES                2026010102350002025
1206012054ATLANTA-SANDY SPRINGS-ROSWELL, GA                 GSE  S06250000832750106625012888001601750GA187GEORGIA                   LUMPKIN                2026010106250002025
1226000000AUGUSTA-RICHMOND COUNTY, GA-SC                    GSE  S03150000832750106625012888001601750GA189GEORGIA                   MCDUFFIE               2026010103150002025
1526000000BRUNSWICK-ST. SIMONS, GA                          GSE  S03300000832750106625012888001601750GA191GEORGIA                   MCINTOSH               2026010103300002025
9999900000NON-METRO                                         GSE  S00850000832750106625012888001601750GA193GEORGIA                   MACON                  2026010101000002008
1202000000ATHENS-CLARKE COUNTY, GA                          GSE  S05360000832750106625012888001601750GA195GEORGIA                   MADISON                2026010105360002025
1798000000COLUMBUS, GA-AL                                   GSE  S03250000832750106625012888001601750GA197GEORGIA                   MARION                 2026010103250002025
1206012054ATLANTA-SANDY SPRINGS-ROSWELL, GA                 GSE  S06250000832750106625012888001601750GA199GEORGIA                   MERIWETHER             2026010106250002025
9999900000NON-METRO                                         GSE  S01000000832750106625012888001601750GA201GEORGIA                   MILLER                 2026010101180002008
9999900000NON-METRO                                         GSE  S01220000832750106625012888001601750GA205GEORGIA                   MITCHELL               2026010101220002025
3142000000MACON-BIBB COUNTY, GA                             GSE  S02500000832750106625012888001601750GA207GEORGIA                   MONROE                 2026010102500002025
4708000000VIDALIA, GA                                       GSE  S01100000832750106625012888001601750GA209GEORGIA                   MONTGOMERY             2026010101170002008
1206012054ATLANTA-SANDY SPRINGS-ROSWELL, GA                 GSE  S06250000832750106625012888001601750GA211GEORGIA                   MORGAN                 2026010106250002025
1914000000DALTON, GA                                        GSE  S02330000832750106625012888001601750GA213GEORGIA                   MURRAY                 2026010102330002025
1798000000COLUMBUS, GA-AL                                   GSE  S03250000832750106625012888001601750GA215GEORGIA                   MUSCOGEE               2026010103250002025
1206012054ATLANTA-SANDY SPRINGS-ROSWELL, GA                 GSE  S06250000832750106625012888001601750GA217GEORGIA                   NEWTON                 2026010106250002025
1202000000ATHENS-CLARKE COUNTY, GA                          GSE  S05360000832750106625012888001601750GA219GEORGIA                   OCONEE                 2026010105360002025
1202000000ATHENS-CLARKE COUNTY, GA                          GSE  S05360000832750106625012888001601750GA221GEORGIA                   OGLETHORPE             2026010105360002025
1206031924ATLANTA-SANDY SPRINGS-ROSWELL, GA                 GSE  S06250000832750106625012888001601750GA223GEORGIA                   PAULDING               2026010106250002025
4758000000WARNER ROBINS, GA                                 GSE  S02590000832750106625012888001601750GA225GEORGIA                   PEACH                  2026010102590002025
1206012054ATLANTA-SANDY SPRINGS-ROSWELL, GA                 GSE  S06250000832750106625012888001601750GA227GEORGIA                   PICKENS                2026010106250002025
4818000000WAYCROSS, GA                                      GSE  S01400000832750106625012888001601750GA229GEORGIA                   PIERCE                 2026010101400002025
1206012054ATLANTA-SANDY SPRINGS-ROSWELL, GA                 GSE  S06250000832750106625012888001601750GA231GEORGIA                   PIKE                   2026010106250002025
1634000000CEDARTOWN, GA                                     GSE  S01950000832750106625012888001601750GA233GEORGIA                   POLK                   2026010101950002025
9999900000NON-METRO                                         GSE  S01400000832750106625012888001601750GA235GEORGIA                   PULASKI                2026010101400002025
9999900000NON-METRO                                         GSE  S03110000832750106625012888001601750GA237GEORGIA                   PUTNAM                 2026010103110002025
2164000000EUFAULA, AL-GA                                    GSE  S01470000832750106625012888001601750GA239GEORGIA                   QUITMAN                2026010101470002025
9999900000NON-METRO                                         GSE  S02850000832750106625012888001601750GA241GEORGIA                   RABUN                  2026010102850002025
9999900000NON-METRO                                         GSE  S00700000832750106625012888001601750GA243GEORGIA                   RANDOLPH               2026010100970002008
1226000000AUGUSTA-RICHMOND COUNTY, GA-SC                    GSE  S03150000832750106625012888001601750GA245GEORGIA                   RICHMOND               2026010103150002025
1206012054ATLANTA-SANDY SPRINGS-ROSWELL, GA                 GSE  S06250000832750106625012888001601750GA247GEORGIA                   ROCKDALE               2026010106250002025
1114000000AMERICUS, GA                                      GSE  S01390000832750106625012888001601750GA249GEORGIA                   SCHLEY                 2026010101390002025
9999900000NON-METRO                                         GSE  S00840000832750106625012888001601750GA251GEORGIA                   SCREVEN                2026010100980002008
9999900000NON-METRO                                         GSE  S00750000832750106625012888001601750GA253GEORGIA                   SEMINOLE               2026010101180002024
1206012054ATLANTA-SANDY SPRINGS-ROSWELL, GA                 GSE  S06250000832750106625012888001601750GA255GEORGIA                   SPALDING               2026010106250002025
4574000000TOCCOA, GA                                        GSE  S02000000832750106625012888001601750GA257GEORGIA                   STEPHENS               2026010102000002025
1798000000COLUMBUS, GA-AL                                   GSE  S03250000832750106625012888001601750GA259GEORGIA                   STEWART                2026010103250002025
1114000000AMERICUS, GA                                      GSE  S01390000832750106625012888001601750GA261GEORGIA                   SUMTER                 2026010101390002025
1798000000COLUMBUS, GA-AL                                   GSE  S03250000832750106625012888001601750GA263GEORGIA                   TALBOT                 2026010103250002025
9999900000NON-METRO                                         GSE  S00750000832750106625012888001601750GA265GEORGIA                   TALIAFERRO             2026010101210002024
9999900000NON-METRO                                         GSE  S01090000832750106625012888001601750GA267GEORGIA                   TATTNALL               2026010101190002008
9999900000NON-METRO                                         GSE  S00740000832750106625012888001601750GA269GEORGIA                   TAYLOR                 2026010101100002008
9999900000NON-METRO                                         GSE  S00550000832750106625012888001601750GA271GEORGIA                   TELFAIR                2026010100830002008
1050000000ALBANY, GA                                        GSE  S02450000832750106625012888001601750GA273GEORGIA                   TERRELL                2026010102450002025
4562000000THOMASVILLE, GA                                   GSE  S02250000832750106625012888001601750GA275GEORGIA                   THOMAS                 2026010102250002025
4570000000TIFTON, GA                                        GSE  S02150000832750106625012888001601750GA277GEORGIA                   TIFT                   2026010102150002025
4708000000VIDALIA, GA                                       GSE  S01100000832750106625012888001601750GA279GEORGIA                   TOOMBS                 2026010101170002008
9999900000NON-METRO                                         GSE  S02390000832750106625012888001601750GA281GEORGIA                   TOWNS                  2026010102390002025
9999900000NON-METRO                                         GSE  S00470000832750106625012888001601750GA283GEORGIA                   TREUTLEN               2026010101340002008
2930000000LAGRANGE, GA-AL                                   GSE  S02150000832750106625012888001601750GA285GEORGIA                   TROUP                  2026010102150002025
4570000000TIFTON, GA                                        GSE  S02150000832750106625012888001601750GA287GEORGIA                   TURNER                 2026010102150002025
3142000000MACON-BIBB COUNTY, GA                             GSE  S02500000832750106625012888001601750GA289GEORGIA                   TWIGGS                 2026010102500002025
9999900000NON-METRO                                         GSE  S02200000832750106625012888001601750GA291GEORGIA                   UNION                  2026010102200002025
4558000000THOMASTON, GA                                     GSE  S01650000832750106625012888001601750GA293GEORGIA                   UPSON                  2026010101650002025
1686000000CHATTANOOGA, TN-GA                                GSE  S03500000832750106625012888001601750GA295GEORGIA                   WALKER                 2026010103500002025
1206012054ATLANTA-SANDY SPRINGS-ROSWELL, GA                 GSE  S06250000832750106625012888001601750GA297GEORGIA                   WALTON                 2026010106250002025
4818000000WAYCROSS, GA                                      GSE  S01400000832750106625012888001601750GA299GEORGIA                   WARE                   2026010101400002025
9999900000NON-METRO                                         GSE  S00700000832750106625012888001601750GA301GEORGIA                   WARREN                 2026010101430002008
9999900000NON-METRO                                         GSE  S01000000832750106625012888001601750GA303GEORGIA                   WASHINGTON             2026010101060002008
2770000000JESUP, GA                                         GSE  S01630000832750106625012888001601750GA305GEORGIA                   WAYNE                  2026010101630002025
9999900000NON-METRO                                         GSE  S00500000832750106625012888001601750GA307GEORGIA                   WEBSTER                2026010100890002023
9999900000NON-METRO                                         GSE  S00840000832750106625012888001601750GA309GEORGIA                   WHEELER                2026010101000002024
9999900000NON-METRO                                         GSE  S02950000832750106625012888001601750GA311GEORGIA                   WHITE                  2026010102950002025
1914000000DALTON, GA                                        GSE  S02330000832750106625012888001601750GA313GEORGIA                   WHITFIELD              2026010102330002025
9999900000NON-METRO                                         GSE  S00600000832750106625012888001601750GA315GEORGIA                   WILCOX                 2026010100980002008
9999900000NON-METRO                                         GSE  S01270000832750106625012888001601750GA317GEORGIA                   WILKES                 2026010101270002025
9999900000NON-METRO                                         GSE  S00860000832750106625012888001601750GA319GEORGIA                   WILKINSON              2026010101190002008
1050000000ALBANY, GA                                        GSE  S02450000832750106625012888001601750GA321GEORGIA                   WORTH                  2026010102450002025
9999900000NON-METRO                                         GSE  S04440001249125159937519332002402625GU010GUAM                      GUAM                   2026010104900002008
2590000000HILO-KAILUA, HI                                   GSE  S05100001249125159937519332002402625HI001HAWAII                    HAWAII                 2026010105100002025
4652000000URBAN HONOLULU, HI                                GSE  S07200001249125159937519332002402625HI003HAWAII                    HONOLULU               2026010107200002025
2798000000KAHULUI-WAILUKU, HI                               GSE  H11300001299500166360020109502499100HI005HAWAII                    KALAWAO                2026010111300002025
2818000000KAPAA, HI                                         GSE  S09320001249125159937519332002402625HI007HAWAII                    KAUAI                  2026010109660002024
2798000000KAHULUI-WAILUKU, HI                               GSE  H11300001299500166360020109502499100HI009HAWAII                    MAUI                   2026010111300002025
9999900000NON-METRO                                         GSE  S00750000832750106625012888001601750IA001IOWA                      ADAIR                  2026010101230002021
9999900000NON-METRO                                         GSE  S00850000832750106625012888001601750IA003IOWA                      ADAMS                  2026010101030002021
9999900000NON-METRO                                         GSE  S01560000832750106625012888001601750IA005IOWA                      ALLAMAKEE              2026010101560002025
9999900000NON-METRO                                         GSE  S01090000832750106625012888001601750IA007IOWA                      APPANOOSE              2026010101090002025
9999900000NON-METRO                                         GSE  S01130000832750106625012888001601750IA009IOWA                      AUDUBON                2026010101130002025
1630000000CEDAR RAPIDS, IA                                  GSE  S02150000832750106625012888001601750IA011IOWA                      BENTON                 2026010102150002025
4794000000WATERLOO-CEDAR FALLS, IA                          GSE  S01910000832750106625012888001601750IA013IOWA                      BLACK HAWK             2026010101910002024
1118000000AMES, IA                                          GSE  S02660000832750106625012888001601750IA015IOWA                      BOONE                  2026010102660002025
4794000000WATERLOO-CEDAR FALLS, IA                          GSE  S01910000832750106625012888001601750IA017IOWA                      BREMER                 2026010101910002024
9999900000NON-METRO                                         GSE  S01600000832750106625012888001601750IA019IOWA                      BUCHANAN               2026010101660002024
