                                                            ZZ203S       1249125159937519332002402625                                                      20260101           
                                                            203B S       0541287069305008377001041125                                                      20260101           
9999900000NON-METRO                                         203B S01710000541287069305008377001041125AK013ALASKA                    ALEUTIANS EAST         2026010102210002024
9999900000NON-METRO                                         203B H04960000585350074935009058001125700AK016ALASKA                    ALEUTIANS WEST         2025010105090002024
1126000000ANCHORAGE, AK                                     203B S04600000541287069305008377001041125AK020ALASKA                    ANCHORAGE MUNIC        2026010104600002025
9999900000NON-METRO                                         203B S01540000541287069305008377001041125AK050ALASKA                    BETHEL CENSUS A        2026010102080002015
9999900000NON-METRO                                         203B S03440000541287069305008377001041125AK060ALASKA                    BRISTOL BAY BOR        2026010103450002023
9999900000NON-METRO                                         203B S02290000541287069305008377001041125AK063ALASKA                    CHUGACH CENSUS         2026010103200002022
9999900000NON-METRO                                         203B S04490000541287069305008377001041125AK066ALASKA                    COPPER RIVER CE        2026010104490002025
9999900000NON-METRO                                         203B S03340000541287069305008377001041125AK068ALASKA                    DENALI BOROUGH         2026010103340002025
9999900000NON-METRO                                         203B S01940000541287069305008377001041125AK070ALASKA                    DILLINGHAM CENS        2026010102600002024
2182000000FAIRBANKS-COLLEGE, AK                             203B S03350000541287069305008377001041125AK090ALASKA                    FAIRBANKS NORTH        2026010103350002025
9999900000NON-METRO                                         203B S03340000541287069305008377001041125AK100ALASKA                    HAINES BOROUGH         2026010103340002025
9999900000NON-METRO                                         203B S03550000541287069305008377001041125AK105ALASKA                    HOONAH-ANGOON C        2026010104560002022
2794000000JUNEAU, AK                                        203B H05190000596850076405009236001147800AK110ALASKA                    JUNEAU CITY AND        2026010105190002025
9999900000NON-METRO                                         203B S03190000541287069305008377001041125AK122ALASKA                    KENAI PENINSULA        2026010103190002025
2854000000KETCHIKAN, AK                                     203B S04420000541287069305008377001041125AK130ALASKA                    KETCHIKAN GATEW        2026010104420002025
9999900000NON-METRO                                         203B H04550000541650069340008381501041650AK150ALASKA                    KODIAK ISLAND B        2025010104710002024
9999900000NON-METRO                                         203B S00860000541287069305008377001041125AK158ALASKA                    KUSILVAK CENSUS        2026010101610002013
9999900000NON-METRO                                         203B S01970000541287069305008377001041125AK164ALASKA                    LAKE AND PENINS        2026010102250002024
1126000000ANCHORAGE, AK                                     203B S04600000541287069305008377001041125AK170ALASKA                    MATANUSKA-SUSIT        2026010104600002025
9999900000NON-METRO                                         203B S04670000541287069305008377001041125AK180ALASKA                    NOME CENSUS ARE        2026010104670002025
9999900000NON-METRO                                         203B S03930000541287069305008377001041125AK185ALASKA                    NORTH SLOPE BOR        2026010103930002025
9999900000NON-METRO                                         203B S02080000541287069305008377001041125AK188ALASKA                    NORTHWEST ARCTI        2026010102280002024
9999900000NON-METRO                                         203B S03850000541287069305008377001041125AK195ALASKA                    PETERSBURG CENS        2026010103850002025
9999900000NON-METRO                                         203B S02830000541287069305008377001041125AK198ALASKA                    PRINCE OF WALES        2026010102970002024
9999900000NON-METRO                                         203B H04900000586500075080009075501127900AK220ALASKA                    SITKA CITY AND         2023010105100002022
9999900000NON-METRO                                         203B S04660000541287069305008377001041125AK230ALASKA                    SKAGWAY MUNICIP        2026010104660002025
9999900000NON-METRO                                         203B S04130000541287069305008377001041125AK240ALASKA                    SOUTHEAST FAIRB        2026010104130002025
9999900000NON-METRO                                         203B S03380000541287069305008377001041125AK275ALASKA                    WRANGELL CITY A        2026010103500002024
9999900000NON-METRO                                         203B S02190000541287069305008377001041125AK282ALASKA                    YAKUTAT CITY AN        2026010103660002013
9999900000NON-METRO                                         203B S01120000541287069305008377001041125AK290ALASKA                    YUKON-KOYUKUK C        2026010101170002015
3386000000MONTGOMERY, AL                                    203B S02200000541287069305008377001041125AL001ALABAMA                   AUTAUGA COUNTY         2026010102200002025
1930000000DAPHNE-FAIRHOPE-FOLEY, AL                         203B S03200000541287069305008377001041125AL003ALABAMA                   BALDWIN COUNTY         2026010103200002025
2164000000EUFAULA, AL-GA                                    203B S01470000541287069305008377001041125AL005ALABAMA                   BARBOUR COUNTY         2026010101470002025
1382000000BIRMINGHAM, AL                                    203B S03170000541287069305008377001041125AL007ALABAMA                   BIBB COUNTY            2026010103170002025
1382000000BIRMINGHAM, AL                                    203B S03170000541287069305008377001041125AL009ALABAMA                   BLOUNT COUNTY          2026010103170002025
9999900000NON-METRO                                         203B S01070000541287069305008377001041125AL011ALABAMA                   BULLOCK COUNTY         2026010101430002024
9999900000NON-METRO                                         203B S01340000541287069305008377001041125AL013ALABAMA                   BUTLER COUNTY          2026010101350002022
1150000000ANNISTON-OXFORD, AL                               203B S01340000541287069305008377001041125AL015ALABAMA                   CALHOUN COUNTY         2026010101570002021
2930000000LAGRANGE, GA-AL                                   203B S02150000541287069305008377001041125AL017ALABAMA                   CHAMBERS COUNTY        2026010102150002025
9999900000NON-METRO                                         203B S01500000541287069305008377001041125AL019ALABAMA                   CHEROKEE COUNTY        2026010101500002025
1382000000BIRMINGHAM, AL                                    203B S03170000541287069305008377001041125AL021ALABAMA                   CHILTON COUNTY         2026010103170002025
9999900000NON-METRO                                         203B S01500000541287069305008377001041125AL023ALABAMA                   CHOCTAW COUNTY         2026010101500002025
9999900000NON-METRO                                         203B S01690000541287069305008377001041125AL025ALABAMA                   CLARKE COUNTY          2026010101750002024
9999900000NON-METRO                                         203B S01000000541287069305008377001041125AL027ALABAMA                   CLAY COUNTY            2026010101000002025
9999900000NON-METRO                                         203B S01930000541287069305008377001041125AL029ALABAMA                   CLEBURNE COUNTY        2026010101930002025
2146000000ENTERPRISE, AL                                    203B S01900000541287069305008377001041125AL031ALABAMA                   COFFEE COUNTY          2026010101900002025
2252000000FLORENCE-MUSCLE SHOALS, AL                        203B S01900000541287069305008377001041125AL033ALABAMA                   COLBERT COUNTY         2026010101900002025
9999900000NON-METRO                                         203B S01360000541287069305008377001041125AL035ALABAMA                   CONECUH COUNTY         2026010101370002024
4518000000TALLADEGA-SYLACAUGA, AL                           203B S01310000541287069305008377001041125AL037ALABAMA                   COOSA COUNTY           2026010101580002009
9999900000NON-METRO                                         203B S01200000541287069305008377001041125AL039ALABAMA                   COVINGTON COUNT        2026010101200002025
9999900000NON-METRO                                         203B S01450000541287069305008377001041125AL041ALABAMA                   CRENSHAW COUNTY        2026010101450002025
1898000000CULLMAN, AL                                       203B S01780000541287069305008377001041125AL043ALABAMA                   CULLMAN COUNTY         2026010101780002025
3712000000OZARK, AL                                         203B S01300000541287069305008377001041125AL045ALABAMA                   DALE COUNTY            2026010101300002025
4282000000SELMA, AL                                         203B S00650000541287069305008377001041125AL047ALABAMA                   DALLAS COUNTY          2026010100970002010
2284000000FORT PAYNE, AL                                    203B S01030000541287069305008377001041125AL049ALABAMA                   DEKALB COUNTY          2026010101460002019
3386000000MONTGOMERY, AL                                    203B S02200000541287069305008377001041125AL051ALABAMA                   ELMORE COUNTY          2026010102200002025
9999900000NON-METRO                                         203B S01640000541287069305008377001041125AL053ALABAMA                   ESCAMBIA COUNTY        2026010102070002022
2346000000GADSDEN, AL                                       203B S02580000541287069305008377001041125AL055ALABAMA                   ETOWAH COUNTY          2026010102580002025
9999900000NON-METRO                                         203B S01190000541287069305008377001041125AL057ALABAMA                   FAYETTE COUNTY         2026010101190002025
4077000000RUSSELLVILLE, AL                                  203B S00980000541287069305008377001041125AL059ALABAMA                   FRANKLIN COUNTY        2026010100980002025
2002000000DOTHAN, AL                                        203B S01920000541287069305008377001041125AL061ALABAMA                   GENEVA COUNTY          2026010101920002025
4622000000TUSCALOOSA, AL                                    203B S02310000541287069305008377001041125AL063ALABAMA                   GREENE COUNTY          2026010102880002015
4622000000TUSCALOOSA, AL                                    203B S02310000541287069305008377001041125AL065ALABAMA                   HALE COUNTY            2026010102880002015
2002000000DOTHAN, AL                                        203B S01920000541287069305008377001041125AL067ALABAMA                   HENRY COUNTY           2026010101920002025
2002000000DOTHAN, AL                                        203B S01920000541287069305008377001041125AL069ALABAMA                   HOUSTON COUNTY         2026010101920002025
4246000000SCOTTSBORO, AL                                    203B S02240000541287069305008377001041125AL071ALABAMA                   JACKSON COUNTY         2026010102240002025
1382000000BIRMINGHAM, AL                                    203B S03170000541287069305008377001041125AL073ALABAMA                   JEFFERSON COUNT        2026010103170002025
9999900000NON-METRO                                         203B S01510000541287069305008377001041125AL075ALABAMA                   LAMAR COUNTY           2026010103520002022
2252000000FLORENCE-MUSCLE SHOALS, AL                        203B S01900000541287069305008377001041125AL077ALABAMA                   LAUDERDALE COUN        2026010101900002025
1946000000DECATUR, AL                                       203B S02080000541287069305008377001041125AL079ALABAMA                   LAWRENCE COUNTY        2026010102080002025
1222000000AUBURN-OPELIKA, AL                                203B S03710000541287069305008377001041125AL081ALABAMA                   LEE COUNTY             2026010103710002025
2662000000HUNTSVILLE, AL                                    203B S02950000541287069305008377001041125AL083ALABAMA                   LIMESTONE COUNT        2026010102950002025
3386000000MONTGOMERY, AL                                    203B S02200000541287069305008377001041125AL085ALABAMA                   LOWNDES COUNTY         2026010102200002025
1222000000AUBURN-OPELIKA, AL                                203B S03710000541287069305008377001041125AL087ALABAMA                   MACON COUNTY           2026010103710002025
2662000000HUNTSVILLE, AL                                    203B S02950000541287069305008377001041125AL089ALABAMA                   MADISON COUNTY         2026010102950002025
9999900000NON-METRO                                         203B S01390000541287069305008377001041125AL091ALABAMA                   MARENGO COUNTY         2026010101390002025
9999900000NON-METRO                                         203B S01400000541287069305008377001041125AL093ALABAMA                   MARION COUNTY          2026010101980002024
1070000000ALBERTVILLE, AL                                   203B S01900000541287069305008377001041125AL095ALABAMA                   MARSHALL COUNTY        2026010101900002025
3366000000MOBILE, AL                                        203B S01450000541287069305008377001041125AL097ALABAMA                   MOBILE COUNTY          2026010101450002025
9999900000NON-METRO                                         203B S00910000541287069305008377001041125AL099ALABAMA                   MONROE COUNTY          2026010101070002010
3386000000MONTGOMERY, AL                                    203B S02200000541287069305008377001041125AL101ALABAMA                   MONTGOMERY COUN        2026010102200002025
1946000000DECATUR, AL                                       203B S02080000541287069305008377001041125AL103ALABAMA                   MORGAN COUNTY          2026010102080002025
9999900000NON-METRO                                         203B S01180000541287069305008377001041125AL105ALABAMA                   PERRY COUNTY           2026010101230002023
4622000000TUSCALOOSA, AL                                    203B S02310000541287069305008377001041125AL107ALABAMA                   PICKENS COUNTY         2026010102880002015
4598000000TROY, AL                                          203B S01440000541287069305008377001041125AL109ALABAMA                   PIKE COUNTY            2026010101500002024
9999900000NON-METRO                                         203B S02460000541287069305008377001041125AL111ALABAMA                   RANDOLPH COUNTY        2026010102750002023
1798000000COLUMBUS, GA-AL                                   203B S03250000541287069305008377001041125AL113ALABAMA                   RUSSELL COUNTY         2026010103250002025
1382000000BIRMINGHAM, AL                                    203B S03170000541287069305008377001041125AL115ALABAMA                   ST. CLAIR COUNT        2026010103170002025
1382000000BIRMINGHAM, AL                                    203B S03170000541287069305008377001041125AL117ALABAMA                   SHELBY COUNTY          2026010103170002025
9999900000NON-METRO                                         203B S02710000541287069305008377001041125AL119ALABAMA                   SUMTER COUNTY          2026010102710002025
4518000000TALLADEGA-SYLACAUGA, AL                           203B S01310000541287069305008377001041125AL121ALABAMA                   TALLADEGA COUNT        2026010101580002009
1076000000ALEXANDER CITY, AL                                203B S02740000541287069305008377001041125AL123ALABAMA                   TALLAPOOSA COUN        2026010102740002025
4622000000TUSCALOOSA, AL                                    203B S02310000541287069305008377001041125AL125ALABAMA                   TUSCALOOSA COUN        2026010102880002015
1382000000BIRMINGHAM, AL                                    203B S03170000541287069305008377001041125AL127ALABAMA                   WALKER COUNTY          2026010103170002025
9999900000NON-METRO                                         203B S02050000541287069305008377001041125AL129ALABAMA                   WASHINGTON COUN        2026010102050002025
9999900000NON-METRO                                         203B S01130000541287069305008377001041125AL131ALABAMA                   WILCOX COUNTY          2026010101200002023
9999900000NON-METRO                                         203B S01350000541287069305008377001041125AL133ALABAMA                   WINSTON COUNTY         2026010101350002025
9999900000NON-METRO                                         203B S00930000541287069305008377001041125AR001ARKANSAS                  ARKANSAS COUNTY        2026010100970002021
9999900000NON-METRO                                         203B S00750000541287069305008377001041125AR003ARKANSAS                  ASHLEY COUNTY          2026010100790002013
3426000000MOUNTAIN HOME, AR                                 203B S01900000541287069305008377001041125AR005ARKANSAS                  BAXTER COUNTY          2026010101900002025
2222000000FAYETTEVILLE-SPRINGDALE-ROGERS, AR                203B S03650000541287069305008377001041125AR007ARKANSAS                  BENTON COUNTY          2026010103650002025
2546000000HARRISON, AR                                      203B S01790000541287069305008377001041125AR009ARKANSAS                  BOONE COUNTY           2026010101790002025
9999900000NON-METRO                                         203B S00830000541287069305008377001041125AR011ARKANSAS                  BRADLEY COUNTY         2026010100830002025
1578000000CAMDEN, AR                                        203B S00850000541287069305008377001041125AR013ARKANSAS                  CALHOUN COUNTY         2026010101730002009
9999900000NON-METRO                                         203B S02210000541287069305008377001041125AR015ARKANSAS                  CARROLL COUNTY         2026010102210002025
9999900000NON-METRO                                         203B S00950000541287069305008377001041125AR017ARKANSAS                  CHICOT COUNTY          2026010101190002008
1166000000ARKADELPHIA, AR                                   203B S02150000541287069305008377001041125AR019ARKANSAS                  CLARK COUNTY           2026010102190002023
9999900000NON-METRO                                         203B S00950000541287069305008377001041125AR021ARKANSAS                  CLAY COUNTY            2026010101190002024
9999900000NON-METRO                                         203B S01950000541287069305008377001041125AR023ARKANSAS                  CLEBURNE COUNTY        2026010101950002025
3822000000PINE BLUFF, AR                                    203B S01630000541287069305008377001041125AR025ARKANSAS                  CLEVELAND COUNT        2026010101630002025
3162000000MAGNOLIA, AR                                      203B S01220000541287069305008377001041125AR027ARKANSAS                  COLUMBIA COUNTY        2026010101490002023
9999900000NON-METRO                                         203B S01300000541287069305008377001041125AR029ARKANSAS                  CONWAY COUNTY          2026010101540002022
2786000000JONESBORO, AR                                     203B S02000000541287069305008377001041125AR031ARKANSAS                  CRAIGHEAD COUNT        2026010102000002025
2290000000FORT SMITH, AR-OK                                 203B S01790000541287069305008377001041125AR033ARKANSAS                  CRAWFORD COUNTY        2026010101790002025
3282000000MEMPHIS, TN-MS-AR                                 203B S03390000541287069305008377001041125AR035ARKANSAS                  CRITTENDEN COUN        2026010103400002024
9999900000NON-METRO                                         203B S01400000541287069305008377001041125AR037ARKANSAS                  CROSS COUNTY           2026010101400002025
9999900000NON-METRO                                         203B S00680000541287069305008377001041125AR039ARKANSAS                  DALLAS COUNTY          2026010100830002008
9999900000NON-METRO                                         203B S00830000541287069305008377001041125AR041ARKANSAS                  DESHA COUNTY           2026010100830002025
9999900000NON-METRO                                         203B S01400000541287069305008377001041125AR043ARKANSAS                  DREW COUNTY            2026010101500002024
3078000000LITTLE ROCK-NORTH LITTLE ROCK-CONWAY, AR          203B S02320000541287069305008377001041125AR045ARKANSAS                  FAULKNER COUNTY        2026010102320002025
9999900000NON-METRO                                         203B S01210000541287069305008377001041125AR047ARKANSAS                  FRANKLIN COUNTY        2026010101750002020
9999900000NON-METRO                                         203B S00950000541287069305008377001041125AR049ARKANSAS                  FULTON COUNTY          2026010101390002024
2630000000HOT SPRINGS, AR                                   203B S02100000541287069305008377001041125AR051ARKANSAS                  GARLAND COUNTY         2026010102100002025
3078000000LITTLE ROCK-NORTH LITTLE ROCK-CONWAY, AR          203B S02320000541287069305008377001041125AR053ARKANSAS                  GRANT COUNTY           2026010102320002025
3750000000PARAGOULD, AR                                     203B S01500000541287069305008377001041125AR055ARKANSAS                  GREENE COUNTY          2026010101500002025
9999900000NON-METRO                                         203B S00810000541287069305008377001041125AR057ARKANSAS                  HEMPSTEAD COUNT        2026010100810002025
3168000000MALVERN, AR                                       203B S01200000541287069305008377001041125AR059ARKANSAS                  HOT SPRING COUN        2026010101390002022
9999900000NON-METRO                                         203B S01280000541287069305008377001041125AR061ARKANSAS                  HOWARD COUNTY          2026010101280002025
1290000000BATESVILLE, AR                                    203B S01350000541287069305008377001041125AR063ARKANSAS                  INDEPENDENCE CO        2026010101350002025
9999900000NON-METRO                                         203B S01090000541287069305008377001041125AR065ARKANSAS                  IZARD COUNTY           2026010101090002025
9999900000NON-METRO                                         203B S00750000541287069305008377001041125AR067ARKANSAS                  JACKSON COUNTY         2026010101400002024
3822000000PINE BLUFF, AR                                    203B S01630000541287069305008377001041125AR069ARKANSAS                  JEFFERSON COUNT        2026010101630002025
9999900000NON-METRO                                         203B S02180000541287069305008377001041125AR071ARKANSAS                  JOHNSON COUNTY         2026010102180002025
9999900000NON-METRO                                         203B S00740000541287069305008377001041125AR073ARKANSAS                  LAFAYETTE COUNT        2026010100800002022
9999900000NON-METRO                                         203B S01000000541287069305008377001041125AR075ARKANSAS                  LAWRENCE COUNTY        2026010101000002025
9999900000NON-METRO                                         203B S00700000541287069305008377001041125AR077ARKANSAS                  LEE COUNTY             2026010101220002020
9999900000NON-METRO                                         203B S01400000541287069305008377001041125AR079ARKANSAS                  LINCOLN COUNTY         2026010101400002025
4550000000TEXARKANA, TX-AR                                  203B S01940000541287069305008377001041125AR081ARKANSAS                  LITTLE RIVER CO        2026010101940002025
9999900000NON-METRO                                         203B S01680000541287069305008377001041125AR083ARKANSAS                  LOGAN COUNTY           2026010101680002025
3078000000LITTLE ROCK-NORTH LITTLE ROCK-CONWAY, AR          203B S02320000541287069305008377001041125AR085ARKANSAS                  LONOKE COUNTY          2026010102320002025
2222000000FAYETTEVILLE-SPRINGDALE-ROGERS, AR                203B S03650000541287069305008377001041125AR087ARKANSAS                  MADISON COUNTY         2026010103650002025
9999900000NON-METRO                                         203B S01470000541287069305008377001041125AR089ARKANSAS                  MARION COUNTY          2026010102040002024
4550000000TEXARKANA, TX-AR                                  203B S01940000541287069305008377001041125AR091ARKANSAS                  MILLER COUNTY          2026010101940002025
1418000000BLYTHEVILLE, AR                                   203B S01010000541287069305008377001041125AR093ARKANSAS                  MISSISSIPPI COU        2026010101080002019
9999900000NON-METRO                                         203B S01090000541287069305008377001041125AR095ARKANSAS                  MONROE COUNTY          2026010101120002022
9999900000NON-METRO                                         203B S01350000541287069305008377001041125AR097ARKANSAS                  MONTGOMERY COUN        2026010101630002023
9999900000NON-METRO                                         203B S00700000541287069305008377001041125AR099ARKANSAS                  NEVADA COUNTY          2026010102290002024
2546000000HARRISON, AR                                      203B S01790000541287069305008377001041125AR101ARKANSAS                  NEWTON COUNTY          2026010101790002025
1578000000CAMDEN, AR                                        203B S00850000541287069305008377001041125AR103ARKANSAS                  OUACHITA COUNTY        2026010101730002009
3078000000LITTLE ROCK-NORTH LITTLE ROCK-CONWAY, AR          203B S02320000541287069305008377001041125AR105ARKANSAS                  PERRY COUNTY           2026010102320002025
9999900000NON-METRO                                         203B S00400000541287069305008377001041125AR107ARKANSAS                  PHILLIPS COUNTY        2026010100650002013
9999900000NON-METRO                                         203B S01070000541287069305008377001041125AR109ARKANSAS                  PIKE COUNTY            2026010101490002020
2786000000JONESBORO, AR                                     203B S02000000541287069305008377001041125AR111ARKANSAS                  POINSETT COUNTY        2026010102000002025
9999900000NON-METRO                                         203B S01300000541287069305008377001041125AR113ARKANSAS                  POLK COUNTY            2026010101300002025
4078000000RUSSELLVILLE, AR                                  203B S01800000541287069305008377001041125AR115ARKANSAS                  POPE COUNTY            2026010101800002025
9999900000NON-METRO                                         203B S01160000541287069305008377001041125AR117ARKANSAS                  PRAIRIE COUNTY         2026010101160002025
3078000000LITTLE ROCK-NORTH LITTLE ROCK-CONWAY, AR          203B S02320000541287069305008377001041125AR119ARKANSAS                  PULASKI COUNTY         2026010102320002025
9999900000NON-METRO                                         203B S01200000541287069305008377001041125AR121ARKANSAS                  RANDOLPH COUNTY        2026010101200002025
2262000000FORREST CITY, AR                                  203B S00600000541287069305008377001041125AR123ARKANSAS                  ST. FRANCIS COU        2026010100680002022
3078000000LITTLE ROCK-NORTH LITTLE ROCK-CONWAY, AR          203B S02320000541287069305008377001041125AR125ARKANSAS                  SALINE COUNTY          2026010102320002025
9999900000NON-METRO                                         203B S00600000541287069305008377001041125AR127ARKANSAS                  SCOTT COUNTY           2026010100890002022
9999900000NON-METRO                                         203B S01110000541287069305008377001041125AR129ARKANSAS                  SEARCY COUNTY          2026010101110002025
2290000000FORT SMITH, AR-OK                                 203B S01790000541287069305008377001041125AR131ARKANSAS                  SEBASTIAN COUNT        2026010101790002025
9999900000NON-METRO                                         203B S01120000541287069305008377001041125AR133ARKANSAS                  SEVIER COUNTY          2026010101120002025
9999900000NON-METRO                                         203B S01030000541287069305008377001041125AR135ARKANSAS                  SHARP COUNTY           2026010101030002025
9999900000NON-METRO                                         203B S01970000541287069305008377001041125AR137ARKANSAS                  STONE COUNTY           2026010101970002025
2098000000EL DORADO, AR                                     203B S01290000541287069305008377001041125AR139ARKANSAS                  UNION COUNTY           2026010101290002025
9999900000NON-METRO                                         203B S01170000541287069305008377001041125AR141ARKANSAS                  VAN BUREN COUNT        2026010101170002025
2222000000FAYETTEVILLE-SPRINGDALE-ROGERS, AR                203B S03650000541287069305008377001041125AR143ARKANSAS                  WASHINGTON COUN        2026010103650002025
4262000000SEARCY, AR                                        203B S01700000541287069305008377001041125AR145ARKANSAS                  WHITE COUNTY           2026010101700002025
9999900000NON-METRO                                         203B S01280000541287069305008377001041125AR147ARKANSAS                  WOODRUFF COUNTY        2026010101280002025
4078000000RUSSELLVILLE, AR                                  203B S01800000541287069305008377001041125AR149ARKANSAS                  YELL COUNTY            2026010101800002025
9999900000NON-METRO                                         203B S01060000541287069305008377001041125AS010AMERICAN SAMOA            EASTERN DISTRIC        2026010101220002008
9999900000NON-METRO                                         203B S01370000541287069305008377001041125AS020AMERICAN SAMOA            MANU'A DISTRICT        2026010102300002008
9999900000NON-METRO                                         203B S01350000541287069305008377001041125AS030AMERICAN SAMOA            ROSE ISLAND            2026010101350002025
9999900000NON-METRO                                         203B S01350000541287069305008377001041125AS040AMERICAN SAMOA            SWAINS ISLAND          2026010101350002025
9999900000NON-METRO                                         203B S01610000541287069305008377001041125AS050AMERICAN SAMOA            WESTERN DISTRIC        2026010101610002025
9999900000NON-METRO                                         203B S01180000541287069305008377001041125AZ001ARIZONA                   APACHE COUNTY          2026010101500002008
4342000000SIERRA VISTA-DOUGLAS, AZ                          203B S02350000541287069305008377001041125AZ003ARIZONA                   COCHISE COUNTY         2026010102350002025
2238000000FLAGSTAFF, AZ                                     203B H05300000609500078025009431501172150AZ005ARIZONA                   COCONINO COUNTY        2026010105300002025
3774000000PAYSON, AZ                                        203B S03350000541287069305008377001041125AZ007ARIZONA                   GILA COUNTY            2026010103350002025
4094000000SAFFORD, AZ                                       203B S02500000541287069305008377001041125AZ009ARIZONA                   GRAHAM COUNTY          2026010102500002025
9999900000NON-METRO                                         203B S01230000541287069305008377001041125AZ011ARIZONA                   GREENLEE COUNTY        2026010101340002023
9999900000NON-METRO                                         203B S01500000541287069305008377001041125AZ012ARIZONA                   LA PAZ COUNTY          2026010101500002025
3806000000PHOENIX-MESA-CHANDLER, AZ                         203B H04850000557750071400008631001072600AZ013ARIZONA                   MARICOPA COUNTY        2026010104850002025
2942000000LAKE HAVASU CITY-KINGMAN, AZ                      203B S02670000541287069305008377001041125AZ015ARIZONA                   MOHAVE COUNTY          2026010102670002025
4332000000SHOW LOW, AZ                                      203B S02940000541287069305008377001041125AZ017ARIZONA                   NAVAJO COUNTY          2026010102940002025
4606000000TUCSON, AZ                                        203B S03600000541287069305008377001041125AZ019ARIZONA                   PIMA COUNTY            2026010103600002025
3806000000PHOENIX-MESA-CHANDLER, AZ                         203B H04850000557750071400008631001072600AZ021ARIZONA                   PINAL COUNTY           2026010104850002025
3570000000NOGALES, AZ                                       203B S02750000541287069305008377001041125AZ023ARIZONA                   SANTA CRUZ COUN        2026010102750002025
3915000000PRESCOTT VALLEY-PRESCOTT, AZ                      203B S04250000541287069305008377001041125AZ025ARIZONA                   YAVAPAI COUNTY         2026010104250002025
4974000000YUMA, AZ                                          203B S02680000541287069305008377001041125AZ027ARIZONA                   YUMA COUNTY            2026010102680002025
4186036084SAN FRANCISCO-OAKLAND-FREMONT, CA                 203B H17500001249125159937519332002402625CA001CALIFORNIA                ALAMEDA COUNTY         2026010117500002025
2382000000GARDNERVILLE RANCHOS, NV-CA                       203B H06400000736000094220011389001415400CA003CALIFORNIA                ALPINE COUNTY          2026010106400002025
9999900000NON-METRO                                         203B S03850000541287069305008377001041125CA005CALIFORNIA                AMADOR COUNTY          2026010103950002022
1702000000CHICO, CA                                         203B S02880000541287069305008377001041125CA007CALIFORNIA                BUTTE COUNTY           2026010103100002022
9999900000NON-METRO                                         203B S03850000541287069305008377001041125CA009CALIFORNIA                CALAVERAS COUNT        2026010103990002022
9999900000NON-METRO                                         203B S03950000541287069305008377001041125CA011CALIFORNIA                COLUSA COUNTY          2026010104000002024
4186036084SAN FRANCISCO-OAKLAND-FREMONT, CA                 203B H17500001249125159937519332002402625CA013CALIFORNIA                CONTRA COSTA CO        2026010117500002025
1886000000CRESCENT CITY, CA                                 203B S02950000541287069305008377001041125CA015CALIFORNIA                DEL NORTE COUNT        2026010102950002025
4090000000SACRAMENTO-ROSEVILLE-FOLSOM, CA                   203B H06650000764750097900011834001470700CA017CALIFORNIA                EL DORADO COUNT        2026010106650002025
2342000000FRESNO, CA                                        203B S04300000541287069305008377001041125CA019CALIFORNIA                FRESNO COUNTY          2026010104300002025
9999900000NON-METRO                                         203B S03000000541287069305008377001041125CA021CALIFORNIA                GLENN COUNTY           2026010103130002024
2170000000EUREKA-ARCATA, CA                                 203B S04000000541287069305008377001041125CA023CALIFORNIA                HUMBOLDT COUNTY        2026010104000002025
2094000000EL CENTRO, CA                                     203B S03550000541287069305008377001041125CA025CALIFORNIA                IMPERIAL COUNTY        2026010103550002025
1386000000BISHOP, CA                                        203B S04550000541287069305008377001041125CA027CALIFORNIA                INYO COUNTY            2026010104550002025
1254000000BAKERSFIELD-DELANO, CA                            203B S03650000541287069305008377001041125CA029CALIFORNIA                KERN COUNTY            2026010103650002025
2526000000HANFORD-CORCORAN, CA                              203B S03700000541287069305008377001041125CA031CALIFORNIA                KINGS COUNTY           2026010103700002025
1734000000CLEARLAKE, CA                                     203B S02600000541287069305008377001041125CA033CALIFORNIA                LAKE COUNTY            2026010102600002025
4500000000SUSANVILLE, CA                                    203B S02000000541287069305008377001041125CA035CALIFORNIA                LASSEN COUNTY          2026010102000002025
3108031084LOS ANGELES-LONG BEACH-ANAHEIM, CA                203B H13000001249125159937519332002402625CA037CALIFORNIA                LOS ANGELES COU        2026010113000002025
2342000000FRESNO, CA                                        203B S04300000541287069305008377001041125CA039CALIFORNIA                MADERA COUNTY          2026010104300002025
4186042034SAN FRANCISCO-OAKLAND-FREMONT, CA                 203B H17500001249125159937519332002402625CA041CALIFORNIA                MARIN COUNTY           2026010117500002025
9999900000NON-METRO                                         203B S03300000541287069305008377001041125CA043CALIFORNIA                MARIPOSA COUNTY        2026010103300002025
4638000000UKIAH, CA                                         203B H04590000546250069930008453001050500CA045CALIFORNIA                MENDOCINO COUNT        2023010104750002022
3290000000MERCED, CA                                        203B S04200000541287069305008377001041125CA047CALIFORNIA                MERCED COUNTY          2026010104200002025
9999900000NON-METRO                                         203B S01750000541287069305008377001041125CA049CALIFORNIA                MODOC COUNTY           2026010101750002025
9999900000NON-METRO                                         203B H06700000776250099375012012001492800CA051CALIFORNIA                MONO COUNTY            2025010106750002024
4150000000SALINAS, CA                                       203B H08650000994750127345015393501913000CA053CALIFORNIA                MONTEREY COUNTY        2026010108650002025
3490000000NAPA, CA                                          203B H08500001017750130290015749001957250CA055CALIFORNIA                NAPA COUNTY            2023010108850002022
4602000000TRUCKEE-GRASS VALLEY, CA                          203B H05650000649750083180010054501249550CA057CALIFORNIA                NEVADA COUNTY          2026010105650002025
3108011244LOS ANGELES-LONG BEACH-ANAHEIM, CA                203B H13000001249125159937519332002402625CA059CALIFORNIA                ORANGE COUNTY          2026010113000002025
4090000000SACRAMENTO-ROSEVILLE-FOLSOM, CA                   203B H06650000764750097900011834001470700CA061CALIFORNIA                PLACER COUNTY          2026010106650002025
9999900000NON-METRO                                         203B S03110000541287069305008377001041125CA063CALIFORNIA                PLUMAS COUNTY          2026010103110002025
4014000000RIVERSIDE-SAN BERNARDINO-ONTARIO, CA              203B H06000000690000088330010677501326950CA065CALIFORNIA                RIVERSIDE COUNT        2026010106000002025
4090000000SACRAMENTO-ROSEVILLE-FOLSOM, CA                   203B H06650000764750097900011834001470700CA067CALIFORNIA                SACRAMENTO COUN        2026010106650002025
4194000000SAN JOSE-SUNNYVALE-SANTA CLARA, CA                203B H18200001249125159937519332002402625CA069CALIFORNIA                SAN BENITO COUN        2026010118200002025
4014000000RIVERSIDE-SAN BERNARDINO-ONTARIO, CA              203B H06000000690000088330010677501326950CA071CALIFORNIA                SAN BERNARDINO         2026010106000002025
4174000000SAN DIEGO-CHULA VISTA-CARLSBAD, CA                203B H09600001104000141335017084002123100CA073CALIFORNIA                SAN DIEGO COUNT        2026010109600002025
4186041884SAN FRANCISCO-OAKLAND-FREMONT, CA                 203B H17500001249125159937519332002402625CA075CALIFORNIA                SAN FRANCISCO C        2026010117500002025
4470000000STOCKTON-LODI, CA                                 203B H05890000678500086860010499501304850CA077CALIFORNIA                SAN JOAQUIN COU        2025010105900002024
4202000000SAN LUIS OBISPO-PASO ROBLES, CA                   203B H08700001000500128085015482501924100CA079CALIFORNIA                SAN LUIS OBISPO        2026010108700002025
4186041884SAN FRANCISCO-OAKLAND-FREMONT, CA                 203B H17500001249125159937519332002402625CA081CALIFORNIA                SAN MATEO COUNT        2026010117500002025
4220000000SANTA MARIA-SANTA BARBARA, CA                     203B H08190000941850120575014574501811300CA083CALIFORNIA                SANTA BARBARA C        2026010108190002025
4194000000SAN JOSE-SUNNYVALE-SANTA CLARA, CA                203B H18200001249125159937519332002402625CA085CALIFORNIA                SANTA CLARA COU        2026010118200002025
4210000000SANTA CRUZ-WATSONVILLE, CA                        203B H11000001249125159937519332002402625CA087CALIFORNIA                SANTA CRUZ COUN        2026010111000002025
3982000000REDDING, CA                                       203B S03500000541287069305008377001041125CA089CALIFORNIA                SHASTA COUNTY          2026010103500002025
9999900000NON-METRO                                         203B S02200000541287069305008377001041125CA091CALIFORNIA                SIERRA COUNTY          2026010102750002023
9999900000NON-METRO                                         203B S02050000541287069305008377001041125CA093CALIFORNIA                SISKIYOU COUNTY        2026010102350002022
4670000000VALLEJO, CA                                       203B H05940000685400087745010606001318100CA095CALIFORNIA                SOLANO COUNTY          2023010105960002022
4222000000SANTA ROSA-PETALUMA, CA                           203B H07800000897000114835013880501725050CA097CALIFORNIA                SONOMA COUNTY          2025010107800002025
3370000000MODESTO, CA                                       203B H04740000545100069780008435001048300CA099CALIFORNIA                STANISLAUS COUN        2026010104740002025
4970000000YUBA CITY, CA                                     203B S04520000541287069305008377001041125CA101CALIFORNIA                SUTTER COUNTY          2026010104520002025
3978000000RED BLUFF, CA                                     203B S02950000541287069305008377001041125CA103CALIFORNIA                TEHAMA COUNTY          2026010102950002025
9999900000NON-METRO                                         203B S01750000541287069305008377001041125CA105CALIFORNIA                TRINITY COUNTY         2026010102400002021
4730000000VISALIA, CA                                       203B S03710000541287069305008377001041125CA107CALIFORNIA                TULARE COUNTY          2026010103710002025
4376000000SONORA, CA                                        203B S03720000541287069305008377001041125CA109CALIFORNIA                TUOLUMNE COUNTY        2026010103720002025
3710000000OXNARD-THOUSAND OAKS-VENTURA, CA                  203B H09000001035000132500016016001990450CA111CALIFORNIA                VENTURA COUNTY         2026010109000002025
4090000000SACRAMENTO-ROSEVILLE-FOLSOM, CA                   203B H06650000764750097900011834001470700CA113CALIFORNIA                YOLO COUNTY            2026010106650002025
4970000000YUBA CITY, CA                                     203B S04520000541287069305008377001041125CA115CALIFORNIA                YUBA COUNTY            2026010104520002025
1974000000DENVER-AURORA-CENTENNIAL, CO                      203B H07500000862500110415013347001658700CO001COLORADO                  ADAMS COUNTY           2026010107500002025
1048000000ALAMOSA, CO                                       203B S02820000541287069305008377001041125CO003COLORADO                  ALAMOSA COUNTY         2026010102820002025
1974000000DENVER-AURORA-CENTENNIAL, CO                      203B H07500000862500110415013347001658700CO005COLORADO                  ARAPAHOE COUNTY        2026010107500002025
9999900000NON-METRO                                         203B S04060000541287069305008377001041125CO007COLORADO                  ARCHULETA COUNT        2026010104450002024
9999900000NON-METRO                                         203B S01140000541287069305008377001041125CO009COLORADO                  BACA COUNTY            2026010101140002025
9999900000NON-METRO                                         203B S01350000541287069305008377001041125CO011COLORADO                  BENT COUNTY            2026010101350002025
1450000000BOULDER, CO                                       203B H07650000879750112625013613501691850CO013COLORADO                  BOULDER COUNTY         2026010107650002025
1974000000DENVER-AURORA-CENTENNIAL, CO                      203B H07500000862500110415013347001658700CO014COLORADO                  BROOMFIELD COUN        2026010107500002025
9999900000NON-METRO                                         203B H06200000713000091275011033501371150CO015COLORADO                  CHAFFEE COUNTY         2026010106200002025
9999900000NON-METRO                                         203B S00820000541287069305008377001041125CO017COLORADO                  CHEYENNE COUNTY        2026010101560002024
1974000000DENVER-AURORA-CENTENNIAL, CO                      203B H07500000862500110415013347001658700CO019COLORADO                  CLEAR CREEK COU        2026010107500002025
1048000000ALAMOSA, CO                                       203B S02820000541287069305008377001041125CO021COLORADO                  CONEJOS COUNTY         2026010102820002025
1048000000ALAMOSA, CO                                       203B S02820000541287069305008377001041125CO023COLORADO                  COSTILLA COUNTY        2026010102820002025
9999900000NON-METRO                                         203B S01260000541287069305008377001041125CO025COLORADO                  CROWLEY COUNTY         2026010101670002023
9999900000NON-METRO                                         203B S02500000541287069305008377001041125CO027COLORADO                  CUSTER COUNTY          2026010102800002024
9999900000NON-METRO                                         203B S03500000541287069305008377001041125CO029COLORADO                  DELTA COUNTY           2026010103500002025
1974000000DENVER-AURORA-CENTENNIAL, CO                      203B H07500000862500110415013347001658700CO031COLORADO                  DENVER COUNTY          2026010107500002025
9999900000NON-METRO                                         203B S04500000541287069305008377001041125CO033COLORADO                  DOLORES COUNTY         2026010104500002025
1974000000DENVER-AURORA-CENTENNIAL, CO                      203B H07500000862500110415013347001658700CO035COLORADO                  DOUGLAS COUNTY         2026010107500002025
2078000000EDWARDS, CO                                       203B H12250001249125159937519332002402625CO037COLORADO                  EAGLE COUNTY           2026010112750002024
1974000000DENVER-AURORA-CENTENNIAL, CO                      203B H07500000862500110415013347001658700CO039COLORADO                  ELBERT COUNTY          2026010107500002025
1782000000COLORADO SPRINGS, CO                              203B H04710000541650069340008381501041650CO041COLORADO                  EL PASO COUNTY         2026010104710002025
1586000000CANON CITY, CO                                    203B S02980000541287069305008377001041125CO043COLORADO                  FREMONT COUNTY         2026010102980002025
4009000000RIFLE, CO                                         203B H10000001249125159937519332002402625CO045COLORADO                  GARFIELD COUNTY        2026010119000002009
1974000000DENVER-AURORA-CENTENNIAL, CO                      203B H07500000862500110415013347001658700CO047COLORADO                  GILPIN COUNTY          2026010107500002025
9999900000NON-METRO                                         203B H07680000883200113065013667001698500CO049COLORADO                  GRAND COUNTY           2026010107680002025
9999900000NON-METRO                                         203B H05840000747500095695011567001437500CO051COLORADO                  GUNNISON COUNTY        2025010106500002024
9999900000NON-METRO                                         203B H04900000563500072140008720001083650CO053COLORADO                  HINSDALE COUNTY        2026010104900002025
9999900000NON-METRO                                         203B S01530000541287069305008377001041125CO055COLORADO                  HUERFANO COUNTY        2026010101650002022
9999900000NON-METRO                                         203B S02890000541287069305008377001041125CO057COLORADO                  JACKSON COUNTY         2026010102890002025
1974000000DENVER-AURORA-CENTENNIAL, CO                      203B H07500000862500110415013347001658700CO059COLORADO                  JEFFERSON COUNT        2026010107500002025
9999900000NON-METRO                                         203B S00640000541287069305008377001041125CO061COLORADO                  KIOWA COUNTY           2026010101110002023
9999900000NON-METRO                                         203B S02250000541287069305008377001041125CO063COLORADO                  KIT CARSON COUN        2026010102580002024
1472000000BRECKENRIDGE, CO                                  203B H09500001092500139860016906002101000CO065COLORADO                  LAKE COUNTY            2026010109500002025
2042000000DURANGO, CO                                       203B H06500000747500095695011567001437500CO067COLORADO                  LA PLATA COUNTY        2026010106500002025
2266000000FORT COLLINS-LOVELAND, CO                         203B H05520000634800081265009823001220800CO069COLORADO                  LARIMER COUNTY         2026010105520002025
9999900000NON-METRO                                         203B S02000000541287069305008377001041125CO071COLORADO                  LAS ANIMAS COUN        2026010102000002025
9999900000NON-METRO                                         203B S01980000541287069305008377001041125CO073COLORADO                  LINCOLN COUNTY         2026010102000002024
4454000000STERLING, CO                                      203B S02190000541287069305008377001041125CO075COLORADO                  LOGAN COUNTY           2026010102250002024
2430000000GRAND JUNCTION, CO                                203B S04000000541287069305008377001041125CO077COLORADO                  MESA COUNTY            2026010104000002025
9999900000NON-METRO                                         203B S03380000541287069305008377001041125CO079COLORADO                  MINERAL COUNTY         2026010103380002025
4446000000STEAMBOAT SPRINGS, CO                             203B H09470001089050139420016852502094350CO081COLORADO                  MOFFAT COUNTY          2026010109470002025
9999900000NON-METRO                                         203B S03300000541287069305008377001041125CO083COLORADO                  MONTEZUMA COUNT        2026010103300002025
3394000000MONTROSE, CO                                      203B S04200000541287069305008377001041125CO085COLORADO                  MONTROSE COUNTY        2026010104200002025
2282000000FORT MORGAN, CO                                   203B S03350000541287069305008377001041125CO087COLORADO                  MORGAN COUNTY          2026010103350002025
9999900000NON-METRO                                         203B S01500000541287069305008377001041125CO089COLORADO                  OTERO COUNTY           2026010101500002025
9999900000NON-METRO                                         203B H06500000750950096135011620501444150CO091COLORADO                  OURAY COUNTY           2026010106530002024
1974000000DENVER-AURORA-CENTENNIAL, CO                      203B H07500000862500110415013347001658700CO093COLORADO                  PARK COUNTY            2026010107500002025
9999900000NON-METRO                                         203B S02100000541287069305008377001041125CO095COLORADO                  PHILLIPS COUNTY        2026010102130002024
4009000000RIFLE, CO                                         203B H10000001249125159937519332002402625CO097COLORADO                  PITKIN COUNTY          2026010119000002009
9999900000NON-METRO                                         203B S02000000541287069305008377001041125CO099COLORADO                  PROWERS COUNTY         2026010102000002025
3938000000PUEBLO, CO                                        203B S02820000541287069305008377001041125CO101COLORADO                  PUEBLO COUNTY          2026010102820002025
9999900000NON-METRO                                         203B S02390000541287069305008377001041125CO103COLORADO                  RIO BLANCO COUN        2026010102390002025
9999900000NON-METRO                                         203B S02140000541287069305008377001041125CO105COLORADO                  RIO GRANDE COUN        2026010102140002025
4446000000STEAMBOAT SPRINGS, CO                             203B H09470001089050139420016852502094350CO107COLORADO                  ROUTT COUNTY           2026010109470002025
9999900000NON-METRO                                         203B S02000000541287069305008377001041125CO109COLORADO                  SAGUACHE COUNTY        2026010102000002025
9999900000NON-METRO                                         203B S04100000541287069305008377001041125CO111COLORADO                  SAN JUAN COUNTY        2026010104500002023
9999900000NON-METRO                                         203B H06500001045350133825016176502010350CO113COLORADO                  SAN MIGUEL COUN        2023010109090002012
9999900000NON-METRO                                         203B S01470000541287069305008377001041125CO115COLORADO                  SEDGWICK COUNTY        2026010101470002025
1472000000BRECKENRIDGE, CO                                  203B H09500001092500139860016906002101000CO117COLORADO                  SUMMIT COUNTY          2026010109500002025
1782000000COLORADO SPRINGS, CO                              203B H04710000541650069340008381501041650CO119COLORADO                  TELLER COUNTY          2026010104710002025
9999900000NON-METRO                                         203B S02300000541287069305008377001041125CO121COLORADO                  WASHINGTON COUN        2026010102300002025
2454000000GREELEY, CO                                       203B H05000000575000073610008898001105800CO123COLORADO                  WELD COUNTY            2026010105000002025
9999900000NON-METRO                                         203B S02050000541287069305008377001041125CO125COLORADO                  YUMA COUNTY            2026010102050002025
2554000000HARTFORD-WEST HARTFORD-EAST HARTFORD, CT          203B S04500000541287069305008377001041125CT110CONNECTICUT               CAPITOL PLANNIN        2026010104500002025
1486000000BRIDGEPORT-STAMFORD-DANBURY, CT                   203B H08500000977500125140015126501879850CT120CONNECTICUT               GREATER BRIDGEP        2026010108500002025
2554000000HARTFORD-WEST HARTFORD-EAST HARTFORD, CT          203B S04500000541287069305008377001041125CT130CONNECTICUT               LOWER CONNECTIC        2026010104500002025
4793000000WATERBURY-SHELTON, CT                             203B S03600000541287069305008377001041125CT140CONNECTICUT               NAUGATUCK VALLE        2026010103600002025
3948000000PUTNAM, CT                                        203B S03600000541287069305008377001041125CT150CONNECTICUT               NORTHEASTERN CO        2026010103600002025
4586000000TORRINGTON, CT                                    203B S03750000541287069305008377001041125CT160CONNECTICUT               NORTHWEST HILLS        2026010103750002025
3530000000NEW HAVEN, CT                                     203B S04100000541287069305008377001041125CT170CONNECTICUT               SOUTH CENTRAL C        2026010104100002025
3598000000NORWICH-NEW LONDON-WILLIMANTIC, CT                203B S03650000541287069305008377001041125CT180CONNECTICUT               SOUTHEASTERN CO        2026010103650002025
1486000000BRIDGEPORT-STAMFORD-DANBURY, CT                   203B H08500000977500125140015126501879850CT190CONNECTICUT               WESTERN CONNECT        2026010108500002025
4790047764WASHINGTON-ARLINGTON-ALEXANDRIA, DC-VA-MD-WV      203B H11980001249125159937519332002402625DC001DISTRICT OF COLUMBIA      DISTRICT OF COL        2026010111980002025
2010000000DOVER, DE                                         203B S03490000541287069305008377001041125DE001DELAWARE                  KENT COUNTY            2026010103490002025
3798048864PHILADELPHIA-CAMDEN-WILMINGTON, PA-NJ-DE-MD       203B H05480000630200080675009752001211950DE003DELAWARE                  NEW CASTLE COUN        2026010105480002025
4258000000SEAFORD, DE                                       203B S04460000541287069305008377001041125DE005DELAWARE                  SUSSEX COUNTY          2026010104460002025
2354000000GAINESVILLE, FL                                   203B S03150000541287069305008377001041125FL001FLORIDA                   ALACHUA COUNTY         2026010103150002025
2726000000JACKSONVILLE, FL                                  203B H04860000580750074345008987001116850FL003FLORIDA                   BAKER COUNTY           2025010105050002024
3746000000PANAMA CITY-PANAMA CITY BEACH, FL                 203B S03300000541287069305008377001041125FL005FLORIDA                   BAY COUNTY             2026010103300002025
9999900000NON-METRO                                         203B S02100000541287069305008377001041125FL007FLORIDA                   BRADFORD COUNTY        2026010102100002025
3734000000PALM BAY-MELBOURNE-TITUSVILLE, FL                 203B S03490000541287069305008377001041125FL009FLORIDA                   BREVARD COUNTY         2026010103490002025
3310022744MIAMI-FORT LAUDERDALE-WEST PALM BEACH, FL         203B H05800000667000085390010321501282700FL011FLORIDA                   BROWARD COUNTY         2026010105800002025
9999900000NON-METRO                                         203B S00920000541287069305008377001041125FL013FLORIDA                   CALHOUN COUNTY         2026010101100002024
3946000000PUNTA GORDA, FL                                   203B S03150000541287069305008377001041125FL015FLORIDA                   CHARLOTTE COUNT        2026010103290002023
2614000000HOMOSASSA SPRINGS, FL                             203B S02470000541287069305008377001041125FL017FLORIDA                   CITRUS COUNTY          2026010102470002025
2726000000JACKSONVILLE, FL                                  203B H04860000580750074345008987001116850FL019FLORIDA                   CLAY COUNTY            2025010105050002024
3494000000NAPLES-MARCO ISLAND, FL                           203B H06500000764750097900011834001470700FL021FLORIDA                   COLLIER COUNTY         2025010106650002024
2938000000LAKE CITY, FL                                     203B S01800000541287069305008377001041125FL023FLORIDA                   COLUMBIA COUNTY        2026010101800002025
1158000000ARCADIA, FL                                       203B S02300000541287069305008377001041125FL027FLORIDA                   DESOTO COUNTY          2026010102300002025
9999900000NON-METRO                                         203B S01090000541287069305008377001041125FL029FLORIDA                   DIXIE COUNTY           2026010101090002025
2726000000JACKSONVILLE, FL                                  203B H04860000580750074345008987001116850FL031FLORIDA                   DUVAL COUNTY           2025010105050002024
3786000000PENSACOLA-FERRY PASS-BRENT, FL                    203B S03300000541287069305008377001041125FL033FLORIDA                   ESCAMBIA COUNTY        2026010103300002025
1966000000DELTONA-DAYTONA BEACH-ORMOND BEACH, FL            203B S03510000541287069305008377001041125FL035FLORIDA                   FLAGLER COUNTY         2026010103510002025
9999900000NON-METRO                                         203B S02300000541287069305008377001041125FL037FLORIDA                   FRANKLIN COUNTY        2026010102300002025
4522000000TALLAHASSEE, FL                                   203B S02770000541287069305008377001041125FL039FLORIDA                   GADSDEN COUNTY         2026010102770002025
2354000000GAINESVILLE, FL                                   203B S03150000541287069305008377001041125FL041FLORIDA                   GILCHRIST COUNT        2026010103150002025
1750000000CLEWISTON, FL                                     203B S02450000541287069305008377001041125FL043FLORIDA                   GLADES COUNTY          2026010102450002025
9999900000NON-METRO                                         203B S03350000541287069305008377001041125FL045FLORIDA                   GULF COUNTY            2026010103350002025
9999900000NON-METRO                                         203B S01100000541287069305008377001041125FL047FLORIDA                   HAMILTON COUNTY        2026010101100002025
9999900000NON-METRO                                         203B S01750000541287069305008377001041125FL049FLORIDA                   HARDEE COUNTY          2026010101750002025
1750000000CLEWISTON, FL                                     203B S02450000541287069305008377001041125FL051FLORIDA                   HENDRY COUNTY          2026010102450002025
4530045294TAMPA-ST. PETERSBURG-CLEARWATER, FL               203B S04000000541287069305008377001041125FL053FLORIDA                   HERNANDO COUNTY        2026010104150002024
4270000000SEBRING, FL                                       203B S02250000541287069305008377001041125FL055FLORIDA                   HIGHLANDS COUNT        2026010102250002025
4530045294TAMPA-ST. PETERSBURG-CLEARWATER, FL               203B S04000000541287069305008377001041125FL057FLORIDA                   HILLSBOROUGH CO        2026010104150002024
9999900000NON-METRO                                         203B S01300000541287069305008377001041125FL059FLORIDA                   HOLMES COUNTY          2026010101300002025
4268000000SEBASTIAN-VERO BEACH-WEST VERO CORRIDOR, FL       203B S03840000541287069305008377001041125FL061FLORIDA                   INDIAN RIVER CO        2026010103840002025
9999900000NON-METRO                                         203B S01300000541287069305008377001041125FL063FLORIDA                   JACKSON COUNTY         2026010101300002025
4522000000TALLAHASSEE, FL                                   203B S02770000541287069305008377001041125FL065FLORIDA                   JEFFERSON COUNT        2026010102770002025
9999900000NON-METRO                                         203B S01190000541287069305008377001041125FL067FLORIDA                   LAFAYETTE COUNT        2026010101190002025
3674000000ORLANDO-KISSIMMEE-SANFORD, FL                     203B S04530000541287069305008377001041125FL069FLORIDA                   LAKE COUNTY            2026010104530002025
1598000000CAPE CORAL-FORT MYERS, FL                         203B S03640000541287069305008377001041125FL071FLORIDA                   LEE COUNTY             2026010103700002024
4522000000TALLAHASSEE, FL                                   203B S02770000541287069305008377001041125FL073FLORIDA                   LEON COUNTY            2026010102770002025
2354000000GAINESVILLE, FL                                   203B S03150000541287069305008377001041125FL075FLORIDA                   LEVY COUNTY            2026010103150002025
9999900000NON-METRO                                         203B S00850000541287069305008377001041125FL077FLORIDA                   LIBERTY COUNTY         2026010101000002008
9999900000NON-METRO                                         203B S00900000541287069305008377001041125FL079FLORIDA                   MADISON COUNTY         2026010100950002009
3584000000NORTH PORT-BRADENTON-SARASOTA, FL                 203B H04330000547400070075008470501052700FL081FLORIDA                   MANATEE COUNTY         2024010104760002023
3610000000OCALA, FL                                         203B S02700000541287069305008377001041125FL083FLORIDA                   MARION COUNTY          2026010102700002025
3894000000PORT ST. LUCIE, FL                                203B H05250000603750077290009342501161050FL085FLORIDA                   MARTIN COUNTY          2026010105250002025
3310033124MIAMI-FORT LAUDERDALE-WEST PALM BEACH, FL         203B H05800000667000085390010321501282700FL086FLORIDA                   MIAMI-DADE COUN        2026010105800002025
2858000000KEY WEST-KEY LARGO, FL                            203B H08610000990150126760015322001904150FL087FLORIDA                   MONROE COUNTY          2026010108610002025
2726000000JACKSONVILLE, FL                                  203B H04860000580750074345008987001116850FL089FLORIDA                   NASSAU COUNTY          2025010105050002024
1888000000CRESTVIEW-FORT WALTON BEACH-DESTIN, FL            203B H05050000603750077290009342501161050FL091FLORIDA                   OKALOOSA COUNTY        2023010105250002022
3638000000OKEECHOBEE, FL                                    203B S01650000541287069305008377001041125FL093FLORIDA                   OKEECHOBEE COUN        2026010101650002025
3674000000ORLANDO-KISSIMMEE-SANFORD, FL                     203B S04530000541287069305008377001041125FL095FLORIDA                   ORANGE COUNTY          2026010104530002025
3674000000ORLANDO-KISSIMMEE-SANFORD, FL                     203B S04530000541287069305008377001041125FL097FLORIDA                   OSCEOLA COUNTY         2026010104530002025
3310048424MIAMI-FORT LAUDERDALE-WEST PALM BEACH, FL         203B H05800000667000085390010321501282700FL099FLORIDA                   PALM BEACH COUN        2026010105800002025
4530045294TAMPA-ST. PETERSBURG-CLEARWATER, FL               203B S04000000541287069305008377001041125FL101FLORIDA                   PASCO COUNTY           2026010104150002024
4530041304TAMPA-ST. PETERSBURG-CLEARWATER, FL               203B S04000000541287069305008377001041125FL103FLORIDA                   PINELLAS COUNTY        2026010104150002024
2946000000LAKELAND-WINTER HAVEN, FL                         203B S03040000541287069305008377001041125FL105FLORIDA                   POLK COUNTY            2026010103150002023
3726000000PALATKA, FL                                       203B S01340000541287069305008377001041125FL107FLORIDA                   PUTNAM COUNTY          2026010101340002025
2726000000JACKSONVILLE, FL                                  203B H04860000580750074345008987001116850FL109FLORIDA                   ST. JOHNS COUNT        2025010105050002024
3894000000PORT ST. LUCIE, FL                                203B H05250000603750077290009342501161050FL111FLORIDA                   ST. LUCIE COUNT        2026010105250002025
3786000000PENSACOLA-FERRY PASS-BRENT, FL                    203B S03300000541287069305008377001041125FL113FLORIDA                   SANTA ROSA COUN        2026010103300002025
3584000000NORTH PORT-BRADENTON-SARASOTA, FL                 203B H04330000547400070075008470501052700FL115FLORIDA                   SARASOTA COUNTY        2024010104760002023
3674000000ORLANDO-KISSIMMEE-SANFORD, FL                     203B S04530000541287069305008377001041125FL117FLORIDA                   SEMINOLE COUNTY        2026010104530002025
4868000000WILDWOOD-THE VILLAGES, FL                         203B S03800000541287069305008377001041125FL119FLORIDA                   SUMTER COUNTY          2026010103800002025
9999900000NON-METRO                                         203B S01450000541287069305008377001041125FL121FLORIDA                   SUWANNEE COUNTY        2026010101450002025
9999900000NON-METRO                                         203B S01290000541287069305008377001041125FL123FLORIDA                   TAYLOR COUNTY          2026010101290002025
9999900000NON-METRO                                         203B S01810000541287069305008377001041125FL125FLORIDA                   UNION COUNTY           2026010101810002025
1966000000DELTONA-DAYTONA BEACH-ORMOND BEACH, FL            203B S03510000541287069305008377001041125FL127FLORIDA                   VOLUSIA COUNTY         2026010103510002025
4522000000TALLAHASSEE, FL                                   203B S02770000541287069305008377001041125FL129FLORIDA                   WAKULLA COUNTY         2026010102770002025
1888000000CRESTVIEW-FORT WALTON BEACH-DESTIN, FL            203B H05050000603750077290009342501161050FL131FLORIDA                   WALTON COUNTY          2023010105250002022
3746000000PANAMA CITY-PANAMA CITY BEACH, FL                 203B S03300000541287069305008377001041125FL133FLORIDA                   WASHINGTON COUN        2026010103300002025
9999900000NON-METRO                                         203B S00750000541287069305008377001041125GA001GEORGIA                   APPLING COUNTY         2026010101230002009
2006000000DOUGLAS, GA                                       203B S01000000541287069305008377001041125GA003GEORGIA                   ATKINSON COUNTY        2026010101250002008
9999900000NON-METRO                                         203B S00650000541287069305008377001041125GA005GEORGIA                   BACON COUNTY           2026010100810002008
9999900000NON-METRO                                         203B S00300000541287069305008377001041125GA007GEORGIA                   BAKER COUNTY           2026010101140002022
3330000000MILLEDGEVILLE, GA                                 203B S01900000541287069305008377001041125GA009GEORGIA                   BALDWIN COUNTY         2026010101900002025
9999900000NON-METRO                                         203B S02880000541287069305008377001041125GA011GEORGIA                   BANKS COUNTY           2026010102880002025
1206012054ATLANTA-SANDY SPRINGS-ROSWELL, GA                 203B H06250000718750092015011122501382250GA013GEORGIA                   BARROW COUNTY          2026010106250002025
1206031924ATLANTA-SANDY SPRINGS-ROSWELL, GA                 203B H06250000718750092015011122501382250GA015GEORGIA                   BARTOW COUNTY          2026010106250002025
2234000000FITZGERALD, GA                                    203B S00800000541287069305008377001041125GA017GEORGIA                   BEN HILL COUNTY        2026010100880002008
9999900000NON-METRO                                         203B S01380000541287069305008377001041125GA019GEORGIA                   BERRIEN COUNTY         2026010101380002025
3142000000MACON-BIBB COUNTY, GA                             203B S02500000541287069305008377001041125GA021GEORGIA                   BIBB COUNTY            2026010102500002025
9999900000NON-METRO                                         203B S01070000541287069305008377001041125GA023GEORGIA                   BLECKLEY COUNTY        2026010101290002024
1526000000BRUNSWICK-ST. SIMONS, GA                          203B S03300000541287069305008377001041125GA025GEORGIA                   BRANTLEY COUNTY        2026010103300002025
4666000000VALDOSTA, GA                                      203B S02350000541287069305008377001041125GA027GEORGIA                   BROOKS COUNTY          2026010102350002025
4234000000SAVANNAH, GA                                      203B S03950000541287069305008377001041125GA029GEORGIA                   BRYAN COUNTY           2026010103950002025
4434000000STATESBORO, GA                                    203B S02800000541287069305008377001041125GA031GEORGIA                   BULLOCH COUNTY         2026010102800002025
1226000000AUGUSTA-RICHMOND COUNTY, GA-SC                    203B S03150000541287069305008377001041125GA033GEORGIA                   BURKE COUNTY           2026010103150002025
1206012054ATLANTA-SANDY SPRINGS-ROSWELL, GA                 203B H06250000718750092015011122501382250GA035GEORGIA                   BUTTS COUNTY           2026010106250002025
9999900000NON-METRO                                         203B S00570000541287069305008377001041125GA037GEORGIA                   CALHOUN COUNTY         2026010100780002009
2868000000KINGSLAND, GA                                     203B S02670000541287069305008377001041125GA039GEORGIA                   CAMDEN COUNTY          2026010102670002025
9999900000NON-METRO                                         203B S01700000541287069305008377001041125GA043GEORGIA                   CANDLER COUNTY         2026010101700002025
1206012054ATLANTA-SANDY SPRINGS-ROSWELL, GA                 203B H06250000718750092015011122501382250GA045GEORGIA                   CARROLL COUNTY         2026010106250002025
1686000000CHATTANOOGA, TN-GA                                203B S03500000541287069305008377001041125GA047GEORGIA                   CATOOSA COUNTY         2026010103500002025
9999900000NON-METRO                                         203B S01370000541287069305008377001041125GA049GEORGIA                   CHARLTON COUNTY        2026010101370002025
4234000000SAVANNAH, GA                                      203B S03950000541287069305008377001041125GA051GEORGIA                   CHATHAM COUNTY         2026010103950002025
1798000000COLUMBUS, GA-AL                                   203B S03250000541287069305008377001041125GA053GEORGIA                   CHATTAHOOCHEE C        2026010103250002025
4490000000SUMMERVILLE, GA                                   203B S01150000541287069305008377001041125GA055GEORGIA                   CHATTOOGA COUNT        2026010101240002009
1206031924ATLANTA-SANDY SPRINGS-ROSWELL, GA                 203B H06250000718750092015011122501382250GA057GEORGIA                   CHEROKEE COUNTY        2026010106250002025
1202000000ATHENS-CLARKE COUNTY, GA                          203B H05360000616400078910009538501185400GA059GEORGIA                   CLARKE COUNTY          2026010105360002025
9999900000NON-METRO                                         203B S01000000541287069305008377001041125GA061GEORGIA                   CLAY COUNTY            2026010101120002008
1206012054ATLANTA-SANDY SPRINGS-ROSWELL, GA                 203B H06250000718750092015011122501382250GA063GEORGIA                   CLAYTON COUNTY         2026010106250002025
9999900000NON-METRO                                         203B S00570000541287069305008377001041125GA065GEORGIA                   CLINCH COUNTY          2026010101220002008
1206031924ATLANTA-SANDY SPRINGS-ROSWELL, GA                 203B H06250000718750092015011122501382250GA067GEORGIA                   COBB COUNTY            2026010106250002025
2006000000DOUGLAS, GA                                       203B S01000000541287069305008377001041125GA069GEORGIA                   COFFEE COUNTY          2026010101250002008
3422000000MOULTRIE, GA                                      203B S01450000541287069305008377001041125GA071GEORGIA                   COLQUITT COUNTY        2026010101450002025
1226000000AUGUSTA-RICHMOND COUNTY, GA-SC                    203B S03150000541287069305008377001041125GA073GEORGIA                   COLUMBIA COUNTY        2026010103150002025
9999900000NON-METRO                                         203B S01410000541287069305008377001041125GA075GEORGIA                   COOK COUNTY            2026010101410002025
1206012054ATLANTA-SANDY SPRINGS-ROSWELL, GA                 203B H06250000718750092015011122501382250GA077GEORGIA                   COWETA COUNTY          2026010106250002025
3142000000MACON-BIBB COUNTY, GA                             203B S02500000541287069305008377001041125GA079GEORGIA                   CRAWFORD COUNTY        2026010102500002025
1838000000CORDELE, GA                                       203B S01300000541287069305008377001041125GA081GEORGIA                   CRISP COUNTY           2026010101300002025
1686000000CHATTANOOGA, TN-GA                                203B S03500000541287069305008377001041125GA083GEORGIA                   DADE COUNTY            2026010103500002025
1206012054ATLANTA-SANDY SPRINGS-ROSWELL, GA                 203B H06250000718750092015011122501382250GA085GEORGIA                   DAWSON COUNTY          2026010106250002025
1246000000BAINBRIDGE, GA                                    203B S01480000541287069305008377001041125GA087GEORGIA                   DECATUR COUNTY         2026010101480002025
1206012054ATLANTA-SANDY SPRINGS-ROSWELL, GA                 203B H06250000718750092015011122501382250GA089GEORGIA                   DEKALB COUNTY          2026010106250002025
9999900000NON-METRO                                         203B S01070000541287069305008377001041125GA091GEORGIA                   DODGE COUNTY           2026010101070002025
9999900000NON-METRO                                         203B S00900000541287069305008377001041125GA093GEORGIA                   DOOLY COUNTY           2026010100900002025
1050000000ALBANY, GA                                        203B S02450000541287069305008377001041125GA095GEORGIA                   DOUGHERTY COUNT        2026010102450002025
1206012054ATLANTA-SANDY SPRINGS-ROSWELL, GA                 203B H06250000718750092015011122501382250GA097GEORGIA                   DOUGLAS COUNTY         2026010106250002025
9999900000NON-METRO                                         203B S00780000541287069305008377001041125GA099GEORGIA                   EARLY COUNTY           2026010100990002008
4666000000VALDOSTA, GA                                      203B S02350000541287069305008377001041125GA101GEORGIA                   ECHOLS COUNTY          2026010102350002025
4234000000SAVANNAH, GA                                      203B S03950000541287069305008377001041125GA103GEORGIA                   EFFINGHAM COUNT        2026010103950002025
9999900000NON-METRO                                         203B S00980000541287069305008377001041125GA105GEORGIA                   ELBERT COUNTY          2026010101030002008
9999900000NON-METRO                                         203B S00800000541287069305008377001041125GA107GEORGIA                   EMANUEL COUNTY         2026010100890002008
4434000000STATESBORO, GA                                    203B S02800000541287069305008377001041125GA109GEORGIA                   EVANS COUNTY           2026010102800002025
9999900000NON-METRO                                         203B S04250000541287069305008377001041125GA111GEORGIA                   FANNIN COUNTY          2026010104250002025
1206012054ATLANTA-SANDY SPRINGS-ROSWELL, GA                 203B H06250000718750092015011122501382250GA113GEORGIA                   FAYETTE COUNTY         2026010106250002025
4066000000ROME, GA                                          203B S02000000541287069305008377001041125GA115GEORGIA                   FLOYD COUNTY           2026010102000002025
1206012054ATLANTA-SANDY SPRINGS-ROSWELL, GA                 203B H06250000718750092015011122501382250GA117GEORGIA                   FORSYTH COUNTY         2026010106250002025
9999900000NON-METRO                                         203B S01940000541287069305008377001041125GA119GEORGIA                   FRANKLIN COUNTY        2026010101940002025
1206012054ATLANTA-SANDY SPRINGS-ROSWELL, GA                 203B H06250000718750092015011122501382250GA121GEORGIA                   FULTON COUNTY          2026010106250002025
9999900000NON-METRO                                         203B S01950000541287069305008377001041125GA123GEORGIA                   GILMER COUNTY          2026010101950002025
9999900000NON-METRO                                         203B S00650000541287069305008377001041125GA125GEORGIA                   GLASCOCK COUNTY        2026010101140002024
1526000000BRUNSWICK-ST. SIMONS, GA                          203B S03300000541287069305008377001041125GA127GEORGIA                   GLYNN COUNTY           2026010103300002025
1566000000CALHOUN, GA                                       203B S02450000541287069305008377001041125GA129GEORGIA                   GORDON COUNTY          2026010102450002025
4562000000THOMASVILLE, GA                                   203B S02250000541287069305008377001041125GA131GEORGIA                   GRADY COUNTY           2026010102250002025
9999900000NON-METRO                                         203B H05550000638250081705009876501227400GA133GEORGIA                   GREENE COUNTY          2026010105550002025
1206012054ATLANTA-SANDY SPRINGS-ROSWELL, GA                 203B H06250000718750092015011122501382250GA135GEORGIA                   GWINNETT COUNTY        2026010106250002025
1846000000CORNELIA, GA                                      203B S02850000541287069305008377001041125GA137GEORGIA                   HABERSHAM COUNT        2026010102850002025
2358000000GAINESVILLE, GA                                   203B S03890000541287069305008377001041125GA139GEORGIA                   HALL COUNTY            2026010103890002025
9999900000NON-METRO                                         203B S00850000541287069305008377001041125GA141GEORGIA                   HANCOCK COUNTY         2026010101580002013
1206031924ATLANTA-SANDY SPRINGS-ROSWELL, GA                 203B H06250000718750092015011122501382250GA143GEORGIA                   HARALSON COUNTY        2026010106250002025
1798000000COLUMBUS, GA-AL                                   203B S03250000541287069305008377001041125GA145GEORGIA                   HARRIS COUNTY          2026010103250002025
9999900000NON-METRO                                         203B S02350000541287069305008377001041125GA147GEORGIA                   HART COUNTY            2026010102350002025
1206012054ATLANTA-SANDY SPRINGS-ROSWELL, GA                 203B H06250000718750092015011122501382250GA149GEORGIA                   HEARD COUNTY           2026010106250002025
1206012054ATLANTA-SANDY SPRINGS-ROSWELL, GA                 203B H06250000718750092015011122501382250GA151GEORGIA                   HENRY COUNTY           2026010106250002025
4758000000WARNER ROBINS, GA                                 203B S02590000541287069305008377001041125GA153GEORGIA                   HOUSTON COUNTY         2026010102590002025
9999900000NON-METRO                                         203B S00940000541287069305008377001041125GA155GEORGIA                   IRWIN COUNTY           2026010101030002024
2760000000JEFFERSON, GA                                     203B S04000000541287069305008377001041125GA157GEORGIA                   JACKSON COUNTY         2026010104000002025
1206012054ATLANTA-SANDY SPRINGS-ROSWELL, GA                 203B H06250000718750092015011122501382250GA159GEORGIA                   JASPER COUNTY          2026010106250002025
9999900000NON-METRO                                         203B S00850000541287069305008377001041125GA161GEORGIA                   JEFF DAVIS COUN        2026010101100002008
9999900000NON-METRO                                         203B S00580000541287069305008377001041125GA163GEORGIA                   JEFFERSON COUNT        2026010100850002009
9999900000NON-METRO                                         203B S00730000541287069305008377001041125GA165GEORGIA                   JENKINS COUNTY         2026010101000002024
2014000000DUBLIN, GA                                        203B S01450000541287069305008377001041125GA167GEORGIA                   JOHNSON COUNTY         2026010101450002025
3142000000MACON-BIBB COUNTY, GA                             203B S02500000541287069305008377001041125GA169GEORGIA                   JONES COUNTY           2026010102500002025
9999900000NON-METRO                                         203B S02600000541287069305008377001041125GA171GEORGIA                   LAMAR COUNTY           2026010102600002025
4666000000VALDOSTA, GA                                      203B S02350000541287069305008377001041125GA173GEORGIA                   LANIER COUNTY          2026010102350002025
2014000000DUBLIN, GA                                        203B S01450000541287069305008377001041125GA175GEORGIA                   LAURENS COUNTY         2026010101450002025
1050000000ALBANY, GA                                        203B S02450000541287069305008377001041125GA177GEORGIA                   LEE COUNTY             2026010102450002025
2598000000HINESVILLE, GA                                    203B S02770000541287069305008377001041125GA179GEORGIA                   LIBERTY COUNTY         2026010102770002025
1226000000AUGUSTA-RICHMOND COUNTY, GA-SC                    203B S03150000541287069305008377001041125GA181GEORGIA                   LINCOLN COUNTY         2026010103150002025
2598000000HINESVILLE, GA                                    203B S02770000541287069305008377001041125GA183GEORGIA                   LONG COUNTY            2026010102770002025
4666000000VALDOSTA, GA                                      203B S02350000541287069305008377001041125GA185GEORGIA                   LOWNDES COUNTY         2026010102350002025
1206012054ATLANTA-SANDY SPRINGS-ROSWELL, GA                 203B H06250000718750092015011122501382250GA187GEORGIA                   LUMPKIN COUNTY         2026010106250002025
1226000000AUGUSTA-RICHMOND COUNTY, GA-SC                    203B S03150000541287069305008377001041125GA189GEORGIA                   MCDUFFIE COUNTY        2026010103150002025
1526000000BRUNSWICK-ST. SIMONS, GA                          203B S03300000541287069305008377001041125GA191GEORGIA                   MCINTOSH COUNTY        2026010103300002025
9999900000NON-METRO                                         203B S00850000541287069305008377001041125GA193GEORGIA                   MACON COUNTY           2026010101000002008
1202000000ATHENS-CLARKE COUNTY, GA                          203B H05360000616400078910009538501185400GA195GEORGIA                   MADISON COUNTY         2026010105360002025
1798000000COLUMBUS, GA-AL                                   203B S03250000541287069305008377001041125GA197GEORGIA                   MARION COUNTY          2026010103250002025
1206012054ATLANTA-SANDY SPRINGS-ROSWELL, GA                 203B H06250000718750092015011122501382250GA199GEORGIA                   MERIWETHER COUN        2026010106250002025
9999900000NON-METRO                                         203B S01000000541287069305008377001041125GA201GEORGIA                   MILLER COUNTY          2026010101180002008
9999900000NON-METRO                                         203B S01220000541287069305008377001041125GA205GEORGIA                   MITCHELL COUNTY        2026010101220002025
3142000000MACON-BIBB COUNTY, GA                             203B S02500000541287069305008377001041125GA207GEORGIA                   MONROE COUNTY          2026010102500002025
4708000000VIDALIA, GA                                       203B S01100000541287069305008377001041125GA209GEORGIA                   MONTGOMERY COUN        2026010101170002008
1206012054ATLANTA-SANDY SPRINGS-ROSWELL, GA                 203B H06250000718750092015011122501382250GA211GEORGIA                   MORGAN COUNTY          2026010106250002025
1914000000DALTON, GA                                        203B S02330000541287069305008377001041125GA213GEORGIA                   MURRAY COUNTY          2026010102330002025
1798000000COLUMBUS, GA-AL                                   203B S03250000541287069305008377001041125GA215GEORGIA                   MUSCOGEE COUNTY        2026010103250002025
1206012054ATLANTA-SANDY SPRINGS-ROSWELL, GA                 203B H06250000718750092015011122501382250GA217GEORGIA                   NEWTON COUNTY          2026010106250002025
1202000000ATHENS-CLARKE COUNTY, GA                          203B H05360000616400078910009538501185400GA219GEORGIA                   OCONEE COUNTY          2026010105360002025
1202000000ATHENS-CLARKE COUNTY, GA                          203B H05360000616400078910009538501185400GA221GEORGIA                   OGLETHORPE COUN        2026010105360002025
1206031924ATLANTA-SANDY SPRINGS-ROSWELL, GA                 203B H06250000718750092015011122501382250GA223GEORGIA                   PAULDING COUNTY        2026010106250002025
4758000000WARNER ROBINS, GA                                 203B S02590000541287069305008377001041125GA225GEORGIA                   PEACH COUNTY           2026010102590002025
1206012054ATLANTA-SANDY SPRINGS-ROSWELL, GA                 203B H06250000718750092015011122501382250GA227GEORGIA                   PICKENS COUNTY         2026010106250002025
4818000000WAYCROSS, GA                                      203B S01400000541287069305008377001041125GA229GEORGIA                   PIERCE COUNTY          2026010101400002025
1206012054ATLANTA-SANDY SPRINGS-ROSWELL, GA                 203B H06250000718750092015011122501382250GA231GEORGIA                   PIKE COUNTY            2026010106250002025
1634000000CEDARTOWN, GA                                     203B S01950000541287069305008377001041125GA233GEORGIA                   POLK COUNTY            2026010101950002025
9999900000NON-METRO                                         203B S01400000541287069305008377001041125GA235GEORGIA                   PULASKI COUNTY         2026010101400002025
9999900000NON-METRO                                         203B S03110000541287069305008377001041125GA237GEORGIA                   PUTNAM COUNTY          2026010103110002025
2164000000EUFAULA, AL-GA                                    203B S01470000541287069305008377001041125GA239GEORGIA                   QUITMAN COUNTY         2026010101470002025
9999900000NON-METRO                                         203B S02850000541287069305008377001041125GA241GEORGIA                   RABUN COUNTY           2026010102850002025
9999900000NON-METRO                                         203B S00700000541287069305008377001041125GA243GEORGIA                   RANDOLPH COUNTY        2026010100970002008
1226000000AUGUSTA-RICHMOND COUNTY, GA-SC                    203B S03150000541287069305008377001041125GA245GEORGIA                   RICHMOND COUNTY        2026010103150002025
1206012054ATLANTA-SANDY SPRINGS-ROSWELL, GA                 203B H06250000718750092015011122501382250GA247GEORGIA                   ROCKDALE COUNTY        2026010106250002025
1114000000AMERICUS, GA                                      203B S01390000541287069305008377001041125GA249GEORGIA                   SCHLEY COUNTY          2026010101390002025
9999900000NON-METRO                                         203B S00840000541287069305008377001041125GA251GEORGIA                   SCREVEN COUNTY         2026010100980002008
9999900000NON-METRO                                         203B S00750000541287069305008377001041125GA253GEORGIA                   SEMINOLE COUNTY        2026010101180002024
1206012054ATLANTA-SANDY SPRINGS-ROSWELL, GA                 203B H06250000718750092015011122501382250GA255GEORGIA                   SPALDING COUNTY        2026010106250002025
4574000000TOCCOA, GA                                        203B S02000000541287069305008377001041125GA257GEORGIA                   STEPHENS COUNTY        2026010102000002025
1798000000COLUMBUS, GA-AL                                   203B S03250000541287069305008377001041125GA259GEORGIA                   STEWART COUNTY         2026010103250002025
1114000000AMERICUS, GA                                      203B S01390000541287069305008377001041125GA261GEORGIA                   SUMTER COUNTY          2026010101390002025
1798000000COLUMBUS, GA-AL                                   203B S03250000541287069305008377001041125GA263GEORGIA                   TALBOT COUNTY          2026010103250002025
9999900000NON-METRO                                         203B S00750000541287069305008377001041125GA265GEORGIA                   TALIAFERRO COUN        2026010101210002024
9999900000NON-METRO                                         203B S01090000541287069305008377001041125GA267GEORGIA                   TATTNALL COUNTY        2026010101190002008
9999900000NON-METRO                                         203B S00740000541287069305008377001041125GA269GEORGIA                   TAYLOR COUNTY          2026010101100002008
9999900000NON-METRO                                         203B S00550000541287069305008377001041125GA271GEORGIA                   TELFAIR COUNTY         2026010100830002008
1050000000ALBANY, GA                                        203B S02450000541287069305008377001041125GA273GEORGIA                   TERRELL COUNTY         2026010102450002025
4562000000THOMASVILLE, GA                                   203B S02250000541287069305008377001041125GA275GEORGIA                   THOMAS COUNTY          2026010102250002025
4570000000TIFTON, GA                                        203B S02150000541287069305008377001041125GA277GEORGIA                   TIFT COUNTY            2026010102150002025
4708000000VIDALIA, GA                                       203B S01100000541287069305008377001041125GA279GEORGIA                   TOOMBS COUNTY          2026010101170002008
9999900000NON-METRO                                         203B S02390000541287069305008377001041125GA281GEORGIA                   TOWNS COUNTY           2026010102390002025
9999900000NON-METRO                                         203B S00470000541287069305008377001041125GA283GEORGIA                   TREUTLEN COUNTY        2026010100870002008
2930000000LAGRANGE, GA-AL                                   203B S02150000541287069305008377001041125GA285GEORGIA                   TROUP COUNTY           2026010102150002025
4570000000TIFTON, GA                                        203B S02150000541287069305008377001041125GA287GEORGIA                   TURNER COUNTY          2026010102150002025
3142000000MACON-BIBB COUNTY, GA                             203B S02500000541287069305008377001041125GA289GEORGIA                   TWIGGS COUNTY          2026010102500002025
9999900000NON-METRO                                         203B S02200000541287069305008377001041125GA291GEORGIA                   UNION COUNTY           2026010102200002025
4558000000THOMASTON, GA                                     203B S01650000541287069305008377001041125GA293GEORGIA                   UPSON COUNTY           2026010101650002025
1686000000CHATTANOOGA, TN-GA                                203B S03500000541287069305008377001041125GA295GEORGIA                   WALKER COUNTY          2026010103500002025
1206012054ATLANTA-SANDY SPRINGS-ROSWELL, GA                 203B H06250000718750092015011122501382250GA297GEORGIA                   WALTON COUNTY          2026010106250002025
4818000000WAYCROSS, GA                                      203B S01400000541287069305008377001041125GA299GEORGIA                   WARE COUNTY            2026010101400002025
9999900000NON-METRO                                         203B S00700000541287069305008377001041125GA301GEORGIA                   WARREN COUNTY          2026010101430002008
9999900000NON-METRO                                         203B S01000000541287069305008377001041125GA303GEORGIA                   WASHINGTON COUN        2026010101060002008
2770000000JESUP, GA                                         203B S01630000541287069305008377001041125GA305GEORGIA                   WAYNE COUNTY           2026010101630002025
9999900000NON-METRO                                         203B S00500000541287069305008377001041125GA307GEORGIA                   WEBSTER COUNTY         2026010100890002023
9999900000NON-METRO                                         203B S00840000541287069305008377001041125GA309GEORGIA                   WHEELER COUNTY         2026010101000002024
9999900000NON-METRO                                         203B S02950000541287069305008377001041125GA311GEORGIA                   WHITE COUNTY           2026010102950002025
1914000000DALTON, GA                                        203B S02330000541287069305008377001041125GA313GEORGIA                   WHITFIELD COUNT        2026010102330002025
9999900000NON-METRO                                         203B S00600000541287069305008377001041125GA315GEORGIA                   WILCOX COUNTY          2026010100980002008
9999900000NON-METRO                                         203B S01270000541287069305008377001041125GA317GEORGIA                   WILKES COUNTY          2026010101270002025
9999900000NON-METRO                                         203B S00860000541287069305008377001041125GA319GEORGIA                   WILKINSON COUNT        2026010101190002008
1050000000ALBANY, GA                                        203B S02450000541287069305008377001041125GA321GEORGIA                   WORTH COUNTY           2026010102450002025
9999900000NON-METRO                                         203B H04440000563500072140008720001083650GU010GUAM                      GUAM                   2014010104900002008
2590000000HILO-KAILUA, HI                                   203B H05100000586500075080009075501127900HI001HAWAII                    HAWAII COUNTY          2026010105100002025
4652000000URBAN HONOLULU, HI                                203B H07200000828000106000012813001592350HI003HAWAII                    HONOLULU COUNTY        2026010107200002025
2798000000KAHULUI-WAILUKU, HI                               203B H11300001299500166360020109502499100HI005HAWAII                    KALAWAO COUNTY         2026010111300002025
2818000000KAPAA, HI                                         203B H09320001110900142215017190502136400HI007HAWAII                    KAUAI COUNTY           2025010109660002024
2798000000KAHULUI-WAILUKU, HI                               203B H11300001299500166360020109502499100HI009HAWAII                    MAUI COUNTY            2026010111300002025
9999900000NON-METRO                                         203B S00750000541287069305008377001041125IA001IOWA                      ADAIR COUNTY           2026010101230002021
9999900000NON-METRO                                         203B S00850000541287069305008377001041125IA003IOWA                      ADAMS COUNTY           2026010101030002021
9999900000NON-METRO                                         203B S01560000541287069305008377001041125IA005IOWA                      ALLAMAKEE COUNT        2026010101560002025
9999900000NON-METRO                                         203B S01090000541287069305008377001041125IA007IOWA                      APPANOOSE COUNT        2026010101090002025
9999900000NON-METRO                                         203B S01130000541287069305008377001041125IA009IOWA                      AUDUBON COUNTY         2026010101130002025
1630000000CEDAR RAPIDS, IA                                  203B S02150000541287069305008377001041125IA011IOWA                      BENTON COUNTY          2026010102150002025
4794000000WATERLOO-CEDAR FALLS, IA                          203B S01910000541287069305008377001041125IA013IOWA                      BLACK HAWK COUN        2026010101910002025
1118000000AMES, IA                                          203B S02660000541287069305008377001041125IA015IOWA                      BOONE COUNTY           2026010102660002025
4794000000WATERLOO-CEDAR FALLS, IA                          203B S01910000541287069305008377001041125IA017IOWA                      BREMER COUNTY          2026010101910002025
9999900000NON-METRO                                         203B S01600000541287069305008377001041125IA019IOWA                      BUCHANAN COUNTY        2026010101660002024
